:020000040800F2
:10000000005000202D5700085D1100085F11000806
:10001000611100086311000865110008000000006C
:100020000000000000000000000000006711000850
:1000300069110008000000006B1100086D11000834
:100040007557000875570008755700087557000860
:100050007557000875570008755700087557000850
:100060007557000875570008755700087557000840
:100070007557000875570008755700087557000830
:100080007557000875570008755700087557000820
:100090007511000875570008755700087557000856
:1000A0007557000875570008755700087557000800
:1000B00075570008755700087557000875570008F0
:1000C00075570008755700087557000875570008E0
:1000D00075570008755700087557000875570008D0
:1000E0007557000875570008755700080000000094
:1000F0000000000000000000000000000000000000
:0C01000000000000000000005FF808F1A3
:100110004FF0FF0C1CEAD0521EBF1CEAD15392EAEA
:100120000C0F93EA0C0F6FD01A4480EA010C4002C6
:1001300018BF5FEA41211ED04FF0006343EA501020
:1001400043EA5111A0FB01310CF00040B1F5000F62
:100150003EBF490041EAD3715B0040EA010062F111
:100160007F02FD2A1DD8B3F1004F40EBC25008BFFB
:1001700020F00100704790F0000F0CF0004C08BF19
:1001800049024CEA502040EA51207F3AC2BFD2F1E6
:10019000FF0340EAC250704740F400004FF00003F4
:1001A000013A5DDC12F1190FDCBF00F0004070472E
:1001B000C2F10002410021FA02F1C2F1200200FA6C
:1001C00002FC5FEA310040F1000053EA4C0308BF33
:1001D00020EADC70704792F0000F00F0004C02BF84
:1001E000400010F4000F013AF9D040EA0C0093F0FF
:1001F000000F01F0004C02BF490011F4000F013B59
:10020000F9D041EA0C018FE70CEAD15392EA0C0FC6
:1002100018BF93EA0C0F0AD030F0004C18BF31F031
:10022000004CD8D180EA010000F00040704790F007
:10023000000F17BF90F0004F084691F0000F91F0AB
:10024000004F14D092EA0C0F01D142020FD193EA71
:100250000C0F03D14B0218BF084608D180EA0100F9
:1002600000F0004040F0FE4040F40000704740F0D5
:10027000FE4040F44000704781F0004102E000BFC2
:1002800083F0004330B54FEA41044FEA430594EA56
:10029000050F08BF90EA020F1FBF54EA000C55EA91
:1002A000020C7FEA645C7FEA655C00F0E2804FEA62
:1002B0005454D4EB5555B8BF6D420CDD2C4480EA44
:1002C000020281EA030382EA000083EA010180EA74
:1002D000020281EA0303362D88BF30BD11F0004FC2
:1002E0004FEA01314FF4801C4CEA113102D04042F8
:1002F00061EB410113F0004F4FEA03334CEA133333
:1003000002D0524263EB430394EA050F00F0A7804A
:10031000A4F10104D5F1200E0DDB02FA0EFC22FA45
:1003200005F2801841F1000103FA0EF2801843FA39
:1003300005F359410EE0A5F120050EF1200E012A2A
:1003400003FA0EFC28BF4CF0020C43FA05F3C01868
:1003500051EBE37101F0004507D54FF0000EDCF1E1
:10036000000C7EEB00006EEB0101B1F5801F1BD38A
:10037000B1F5001F0CD349085FEA30004FEA3C0C8E
:1003800004F101044FEA445212F5800F80F09A8084
:10039000BCF1004F08BF5FEA500C50F1000041EB88
:1003A000045141EA050130BD5FEA4C0C404141EB8C
:1003B0000101013C28BFB1F5801FE9D291F0000F87
:1003C00004BF01460020B1FA81F308BF2033A3F136
:1003D0000B03B3F120020CDA0C3208DD02F1140C2D
:1003E000C2F10C0201FA0CF021FA02F10CE002F168
:1003F0001402D8BFC2F1200C01FA02F120FA0CFC61
:10040000DCBF41EA0C019040E41AA2BF01EB0451A9
:10041000294330BD6FEA04041F3C1CDA0C340EDCA7
:1004200004F11404C4F1200220FA04F001FA02F3EA
:1004300040EA030021FA04F345EA030130BDC4F1A8
:100440000C04C4F1200220FA02F001FA04F340EA9D
:100450000300294630BD21FA04F0294630BD94F04E
:10046000000F83F4801306BF81F480110134013D35
:100470004EE77FEA645C18BF7FEA655C29D094EAA6
:10048000050F08BF90EA020F05D054EA000C04BF24
:100490001946104630BD91EA030F1EBF002100200F
:1004A00030BD5FEA545C05D14000494128BF41F0AE
:1004B000004130BD14F580043CBF01F5801130BD12
:1004C00001F0004545F0FE4141F470014FF000009D
:1004D00030BD7FEA645C1ABF194610467FEA655C4E
:1004E0001CBF0B46024650EA013406BF52EA0335F0
:1004F00091EA030F41F4002130BD00BF90F0000FDE
:1005000004BF0021704730B54FF4806404F1320419
:100510004FF000054FF0000150E700BF90F0000FD2
:1005200004BF0021704730B54FF4806404F13204F9
:1005300010F0004548BF40424FF000013EE700BFC9
:1005400042004FEAE2014FEA31014FEA02701FBF59
:1005500012F07F4393F07F4F81F06051704732F08B
:100560007F4208BF704793F07F4F04BF41F40021E2
:10057000704730B54FF4607401F0004521F0004140
:100580001CE700BF50EA010208BF704730B54FF0CA
:1005900000050AE050EA010208BF704730B511F0CB
:1005A000004502D5404261EB41014FF4806404F103
:1005B00032045FEA915C3FF4D8AE4FF003025FEA89
:1005C000DC0C18BF03325FEADC0C18BF033202EB0D
:1005D000DC02C2F1200300FA03FC20FA02F001FA67
:1005E00003FE40EA0E0021FA02F11444BDE600BF0A
:1005F00070B54FF0FF0C4CF4E06C1CEA11541DBFB9
:100600001CEA135594EA0C0F95EA0C0F00F0DEF883
:100610002C4481EA030621EA4C5123EA4C5350EA68
:10062000013518BF52EA033541F4801143F48013B9
:1006300038D0A0FB02CE4FF00005E1FB02E506F04A
:100640000042E0FB03E54FF00006E1FB03569CF09F
:10065000000F18BF4EF0010EA4F1FF04B6F5007FA5
:1006600064F5407404D25FEA4E0E6D4146EB060617
:1006700042EAC62141EA55514FEAC52040EA5E50A0
:100680004FEACE2EB4F1FD0C88BFBCF5E06F1ED84A
:10069000BEF1004F08BF5FEA500E50F1000041EB81
:1006A000045170BD06F0004646EA010140EA02002E
:1006B00081EA0301B4EB5C04C2BFD4EB0C0541EA50
:1006C000045170BD41F480114FF0000E013C00F365
:1006D000AB8014F1360FDEBF002001F0004170BD89
:1006E000C4F10004203C35DA0C341BDC04F11404A2
:1006F000C4F1200500FA05F320FA04F001FA05F22E
:1007000040EA020001F0004221F0004110EBD370FA
:1007100021FA04F642EB06015EEA430E08BF20EA26
:10072000D37070BDC4F10C04C4F1200500FA04F3C9
:1007300020FA05F001FA04F240EA020001F000415B
:1007400010EBD37041F100015EEA430E08BF20EACE
:10075000D37070BDC4F1200500FA05F24EEA020E16
:1007600020FA04F301FA05F243EA020321FA04F045
:1007700001F0004121FA04F220EA020000EBD370FC
:100780005EEA430E08BF20EAD37070BD94F0000FFC
:100790000FD101F00046400041EB010111F4801F30
:1007A00008BF013CF7D041EA060195F0000F18BFE1
:1007B000704703F00046520043EB030313F4801F1D
:1007C00008BF013DF7D043EA0603704794EA0C0FD7
:1007D0000CEA135518BF95EA0C0F0CD050EA4106ED
:1007E00018BF52EA4306D1D181EA030101F000416A
:1007F0004FF0000070BD50EA410606BF1046194692
:1008000052EA430619D094EA0C0F02D150EA01369D
:1008100013D195EA0C0F05D152EA03361CBF1046DE
:1008200019460AD181EA030101F0004141F0FE417D
:1008300041F470014FF0000070BD41F0FE4141F401
:10084000780170BD70B54FF0FF0C4CF4E06C1CEA01
:1008500011541DBF1CEA135594EA0C0F95EA0C0FB6
:1008600000F0A7F8A4EB050481EA030E52EA033571
:100870004FEA013100F088804FEA03334FF0805592
:1008800045EA131343EA12634FEA022245EA1115BF
:1008900045EA10654FEA00260EF000419D4208BF70
:1008A000964244F1FD0404F5407402D25B084FEA1D
:1008B0003202B61A65EB03055B084FEA32024FF4C9
:1008C00080104FF4002CB6EB020E75EB030E22BF26
:1008D000B61A754640EA0C005B084FEA3202B6EBE6
:1008E000020E75EB030E22BFB61A754640EA5C0095
:1008F0005B084FEA3202B6EB020E75EB030E22BF25
:10090000B61A754640EA9C005B084FEA3202B6EB25
:10091000020E75EB030E22BFB61A754640EADC00E4
:1009200055EA060E18D04FEA051545EA16754FEA46
:1009300006164FEAC30343EA52734FEAC2025FEA64
:100940001C1CC0D111F4801F0BD141EA00014FF0F3
:1009500000004FF0004CB6E711F4801F04BF0143C4
:100960000020B4F1FD0C88BFBCF5E06F3FF6AFAEE0
:10097000B5EB030C04BFB6EB020C5FEA500C50F170
:10098000000041EB045170BD0EF0004E4EEA1131F3
:1009900014EB5C04C2BFD4EB0C0541EA045170BDFA
:1009A00041F480114FF0000E013C90E645EA060E3E
:1009B0008DE60CEA135594EA0C0F08BF95EA0C0F6C
:1009C0003FF43BAF94EA0C0F0AD150EA01347FF4B4
:1009D00034AF95EA0C0F7FF425AF104619462CE78B
:1009E00095EA0C0F06D152EA03353FF4FDAE1046EE
:1009F000194622E750EA410618BF52EA43067FF43F
:100A0000C5AE50EA41047FF40DAF52EA43057FF4CE
:100A1000EBAE12E74FEA4102B2F1E04324BFB3F577
:100A2000001CDCF1FE5C0DD901F0004C4FEAC00265
:100A30004CEA5070B2F1004F40EB830008BF20F049
:100A40000100704711F0804F21D113F13872BCBF03
:100A500001F00040704741F480114FEA5252C2F158
:100A60001802C2F1200C10FA0CF320FA02F018BFA1
:100A700040F001004FEAC1234FEAD32303FA0CFCF4
:100A800040EA0C0023FA02F34FEA4303CCE77FEA83
:100A9000625307D150EA01331EBF4FF0FE4040F4CD
:100AA0004000704701F0004040F0FE4040F400007C
:100AB000704700BF80F0004002E000BF81F00041BD
:100AC00042001FBF5FEA410392EA030F7FEA226CF4
:100AD0007FEA236C6AD04FEA1262D2EB1363C1BF84
:100AE000D218414048404140B8BF5B42192B88BFF3
:100AF000704710F0004F40F4000020F07F4018BF16
:100B0000404211F0004F41F4000121F07F4118BF35
:100B1000494292EA030F3FD0A2F1010241FA03FCDD
:100B200010EB0C00C3F1200301FA03F100F00043C5
:100B300002D5494260EB4000B0F5000F13D3B0F18D
:100B4000807F06D340084FEA310102F10102FE2AFC
:100B500051D2B1F1004F40EBC25008BF20F001006C
:100B600040EA03007047490040EB0000013A28BF0B
:100B7000B0F5000FEDD2B0FA80FCACF1080CB2EB8E
:100B80000C0200FA0CF0AABF00EBC250524218430C
:100B9000BCBFD0401843704792F0000F81F40001B1
:100BA00006BF80F400000132013BB5E74FEA410384
:100BB0007FEA226C18BF7FEA236C21D092EA030FF0
:100BC00004D092F0000F08BF0846704790EA010F6A
:100BD0001CBF0020704712F07F4F04D1400028BF97
:100BE00040F00040704712F100723CBF00F5000079
:100BF000704700F0004343F0FE4040F400007047AF
:100C00007FEA226216BF08467FEA2363014642025A
:100C100006BF5FEA412390EA010F40F4800070476D
:100C20004FF0000304E000BF10F0004348BF404213
:100C30005FEA000C08BF704743F0964301464FF04F
:100C400000001CE050EA010208BF70474FF00003AB
:100C50000AE000BF50EA010208BF704711F00043EC
:100C600002D5404261EB41015FEA010C02BF8446BC
:100C70000146002043F0B64308BFA3F18053A3F51B
:100C80000003BCFA8CF2083AA3EBC25310DB01FA62
:100C900002FC634400FA02FCC2F12002BCF1004FE6
:100CA00020FA02F243EB020008BF20F00100704777
:100CB00002F1200201FA02FCC2F1200250EA4C00CB
:100CC00021FA02F243EB020008BF20EADC70704711
:100CD00010B5054C237833B9044B13B10448AFF376
:100CE00000800123237010BD7C0100200000000063
:100CF000D057000808B5034B1BB103490348AFF3B5
:100D0000008008BD0000000080010020D0570008CE
:100D100008B50548054B036000F0E0FC00B908BDCC
:100D200000F08EF9FBE700BF980100200030024080
:100D30000268094B9A4200D0704782B0A3F5005375
:100D40005A6942F040025A615B6903F04003019323
:100D5000019B02B0704700BF0030024070B588B000
:100D600004AD002404940594069407941C4B9A69DE
:100D700042F020029A619A6902F020020192019ADF
:100D80009A6942F004029A619A6902F0040202929E
:100D9000029A9A6942F008029A619B6903F008037B
:100DA0000393039B0F4E22464FF40071304600F030
:100DB000DAFD4FF47F4304930594069429460A48CC
:100DC00000F0C0FC4FF400730493012305930694D4
:100DD000022307932946304600F0B4FC08B070BDEA
:100DE0000010024000080140000C014010F4000F08
:100DF00001D040F07F40704708B54FF48071034840
:100E000000F0AAFD0028F8D108BD00BF000C014089
:100E100038B5FFF7F1FF002305E02F4A002142F823
:100E200023100133DBB2072BF7D900224FF40071F6
:100E30002A4800F098FD002415E00133DBB2072BAF
:100E40000FD8254951F82320520041F82320244986
:100E500031F813100142F0D001321F4941F823202C
:100E6000EBE70134E4B2172C1FD81C4D01224FF4DC
:100E70000071284600F077FD00224FF400712846EB
:100E800000F071FD174B98680023D8E7134D01223D
:100E90004FF40071284600F066FD00224FF4007107
:100EA000284600F060FD0134E4B20F4B1B78A342EA
:100EB000ECD800240CE0084D55F82400FFF796FF0D
:100EC0000A4B53F82430184445F824000134E4B2A6
:100ED000072CF0D938BD00BFA00100200008014058
:100EE000E8570008000C0140E0010020C00100208C
:100EF00008B5074B1870002305E0064A002142F8A8
:100F000023100133DBB2072BF7D9FFF781FF08BDB0
:100F1000E0010020C001002010B588B0202200218F
:100F2000684604F028FC00240FE008AA02EB8301C5
:100F300051F8202C154850F82300024441F8202C89
:100F40000133DBB2072BF0D901343F2C03D8FFF774
:100F50005FFF0023F6E7002306E0A2EBA1120C4995
:100F600041F820200133DBB2072B0CD81846084A81
:100F700052F8232008A901EB830151F8201C002915
:100F8000EBDA3F31E9E708B010BD00BFA001002057
:100F9000C00100200000000010B5154B1B781A2B73
:100FA0001ED01B2B1AD0134C134B53F82000FFF705
:100FB0003BFE4FF05051FFF7ABF82146FFF7A8F882
:100FC000FFF7BEFA00220D4BFFF712FB06A3D3E991
:100FD0000023FFF737FCFFF71DFD10BD084CE3E7CA
:100FE000084CE1E7AFF30080EC51B81E85EBB13F50
:100FF000E0010020A0DE8C3CA00100200000594050
:10100000A0DE0C3DA0DE8C3D10B5002408E020469B
:10101000FFF7C2FF074B03EB840358600134E4B2CF
:10102000072CF4D9044C08222146044800F065FB43
:10103000206210BDE4010020E8010020980100209A
:1010400072B6FEE710B594B00AAC28220021204603
:1010500004F091FB002305930693079308930993EB
:10106000019302930393049301220A924FF4803375
:101070000B930E920222119212934FF4E0131393EA
:10108000204601F0ADFCB8B90F230593022106916B
:10109000002307934FF480620892099305A801F09A
:1010A000D1FE58B9102301930023049301A801F045
:1010B0007FFF28B914B010BDFFF7C2FFFFF7C0FFD4
:1010C000FFF7BEFF08B500F06DFAFFF7BBFFFFF7B3
:1010D00045FE00F001F900F071F900F0C9F904F0E3
:1010E000FFF8FFF715FE1A20FFF702FFFFF714FFC6
:1010F000084B50221A7052225A705A229A704C226F
:10110000DA70FFF785FEFFF77FFF2821014804F022
:1011100037F9F6E7E401002082B00E4B9A6942F0FD
:1011200001029A619A6902F001020092009ADA695A
:1011300042F08052DA61DB6903F080530193019B36
:10114000054A536823F0E06343F00073536002B034
:10115000704700BF0010024000000140FEE7FEE7BC
:10116000FEE7FEE7FEE770477047704708B500F0FE
:101170002BFA08BD08B5024801F0E5F908BD00BF2B
:10118000D01100207047000082B003680E4A9342DD
:1011900004D00E4A93420CD002B070470C4B9A69AF
:1011A00042F400629A619B6903F400630093009B20
:1011B000F2E7074BDA6942F00202DA61DB6903F019
:1011C00002030193019BE7E7002C0140000400406B
:1011D000001002400368B3F1804F00D0704782B026
:1011E00003F50433DA6942F00102DA61DB6903F0E6
:1011F00001030193019B02B07047000030B589B034
:101200000023049305930693079303682D4A9342A2
:1012100007D0B3F1804F19D02B4A93422BD009B09D
:1012200030BD2A4B9A6942F004029A619B6903F02F
:1012300004030093009B4FF48073049302230593EF
:10124000079304A9224800F07DFAE8E703F5043388
:101250009A6942F004029A619B6903F004030193C6
:10126000019B0F23049302230593079304A91848B5
:1012700000F068FAD3E7154B9A6942F004029A61CC
:101280009A6902F004020292029A9A6942F00802F4
:101290009A619B6903F008030393039BC0230493A3
:1012A00002240594079404AD2946094800F04AFA3F
:1012B00003230493059407942946064800F042FA54
:1012C000ADE700BF002C01400004004000100240C8
:1012D00000080140000C014010B596B000241294A3
:1012E0001394149415941094119409940A940B94E3
:1012F0000C940D940E940F942022214601A804F022
:101300003AFA2C482C4B0360446084604FF6FF731C
:10131000C36004614461846101F0C2FF002837D1D9
:101320004FF48053129312A9224802F0CFF80028FC
:1013300031D1204801F0E0FF00282FD10023109385
:10134000119310A91B4802F041F950BB6023099387
:1013500000220A920B920C920D920E920F9209A902
:10136000144802F023F8F8B9002301930293039381
:10137000049305934FF400520692089301A90D4877
:1013800002F05AF998B90B48FFF738FF16B010BDB4
:10139000FFF756FEC4E7FFF753FECAE7FFF750FE1C
:1013A000CCE7FFF74DFED1E7FFF74AFEDCE7FFF79A
:1013B00047FEE8E79C020020002C014000B58BB0FE
:1013C00000230893099301930293039304930593D5
:1013D0000693079325484FF0804202604360836084
:1013E0004FF6FF72C2600361836101F085FF58BB55
:1013F00000230893099308A91C4802F0E7F830BBC2
:1014000060230193002202920392059201A91748DA
:1014100001F0CCFFF0B904220DEB0201134801F0FA
:10142000C5FFD0B9082201A9104801F0BFFFB8B923
:101430000C2201A90D4801F0B9FFA0B90B48FFF734
:10144000DDFE0BB05DF804FBFFF7FAFDD0E7FFF718
:10145000F7FDD5E7FFF7F4FDDDE7FFF7F1FDE1E785
:10146000FFF7EEFDE4E7FFF7EBFDE7E754020020AE
:1014700000B58FB000230A930B930C930D93089340
:10148000099301930293039304930593069307939F
:101490002F48304A0260436083604FF6FF72C2609B
:1014A0000361836101F0FCFE002839D14FF48053C1
:1014B0000A930AA9264802F009F8002833D12448E3
:1014C00001F01AFF002831D100230893099308A9DD
:1014D0001F4802F07BF860BB602301930022029258
:1014E0000392059201A91A4801F060FF20BB042273
:1014F0000DEB0201164801F059FF00BB082201A9BB
:10150000134801F053FFE8B90C2201A9104801F07B
:101510004DFFD0B90E48FFF771FE0FB05DF804FB28
:10152000FFF78EFDC2E7FFF78BFDC8E7FFF788FDE9
:10153000CAE7FFF785FDCFE7FFF782FDD7E7FFF7A3
:101540007FFDDBE7FFF77CFDDEE7FFF779FDE1E7F5
:101550000C0200200004004010B504460E4B1A781F
:101560004FF47A73B3FBF2F30C4A1068B0FBF3F05C
:1015700000F0A0F868B90F2C01D901200AE0002280
:1015800021464FF0FF3000F077F8054B1C6000203B
:1015900000E0012010BD00BF04000020000000207A
:1015A0000800002008B5074A136843F010031360D1
:1015B000032000F04FF80F20FFF7CEFFFFF7ACFD40
:1015C000002008BD00200240034A1168034B1B782D
:1015D0000B441360704700BFE402002004000020A9
:1015E000014B1868704700BFE4020020002808DBA8
:1015F0000901C9B200F1604000F5614080F80013B4
:10160000704700F00F000901C9B2014B195470472F
:1016100014ED00E000B500F00700C0F1070CBCF1CC
:10162000040F28BF4FF0040C031D062B0FD9C31E57
:101630004FF0FF3E0EFA0CF021EA000199400EFA3D
:1016400003FE22EA0E0241EA02005DF804FB0023D9
:10165000EEE70000074AD36823F4E0631B041B0C89
:10166000000200F4E060034343F0BF6343F400333F
:10167000D360704700ED00E010B50446054BD86814
:10168000C0F30220FFF7C6FF01462046FFF7AEFF7A
:1016900010BD00BF00ED00E0002807DB00F01F02D6
:1016A000400901239340024A42F82030704700BFAE
:1016B00000E100E00138B0F1807F0BD24FF0E02371
:1016C0005861054AF02182F8231000209861072212
:1016D0001A6170470120704700ED00E058B110B565
:1016E000044643791BB101236371002010BD0371CF
:1016F000FFF71EFBF7E70120704784460223437182
:101700000068836843F0010383600023934211D291
:1017100000B5DCF8000051F823E0C0F800E0013328
:101720009342F6D3DCF80030186801238CF80530BA
:101730005DF804FBDCF80030186801238CF80530F4
:101740007047000070B582B00024A4469EE07C4D36
:10175000AB4214D00CD8A5F58015AB420FD005F5DF
:101760007025AB420BD0A5F58015AB421FD106E02A
:10177000744DAB4203D005F58035AB4217D18B6871
:10178000A3B1012B0DD04261082410E0CC680EE01B
:10179000CC6804340BE0CC68083408E0CC680C3426
:1017A00005E00261082402E0002400E00424BEF108
:1017B000FF0F37D806464FEA8C0233680F25954055
:1017C00023EA050304FA02F2134333604B6813F073
:1017D000805F59D05C4B9A6942F001029A619B6923
:1017E00003F001030193019B4FEA9C02951C574BA8
:1017F00053F825600CF00305AD000F23AB4026EA3B
:101800000306534B984214D003F58063984279D075
:1018100003F58063984277D003F58063984206D041
:10182000042307E0061DACF108029200C5E703237C
:1018300000E00023AB4033430232444D45F82230F0
:101840004B6813F4801F61D0424A936843EA0E0349
:1018500093604B6813F4001F5ED03E4AD36843EA9E
:101860000E03D3604B6813F4003F5BD0394A5368D2
:1018700043EA0E0353604B6813F4803F58D0354A57
:10188000136843EA0E0313600CF1010C0B6833FA82
:101890000CF253D0012202FA0CF203EA020E32EAF1
:1018A0000303F1D14B68122B3FF651AF122B3FF6D9
:1018B0007EAF01A555F823F07F1700088D170008AB
:1018C00097170008A9170008AF170008AF170008FE
:1018D000AF170008AF170008AF170008AF170008D0
:1018E000AF170008AF170008AF170008AF170008C0
:1018F000AF170008AF170008AF17000891170008CE
:101900009D170008012395E7022393E7114A936886
:1019100023EA0E0393609CE70E4AD36823EA0E0382
:10192000D3609FE70B4A536823EA0E035360A2E794
:10193000084A136823EA0E031360A5E702B070BDDE
:101940000000221000003110001002400000014091
:1019500000080140000401408368194201D00120C1
:101960007047002070470AB10161704709040161A6
:10197000704738B512F4804F44D00468B4F8503042
:101980009BB291F800C003EBCC03023304EB430499
:10199000B4F80044C4F309048B69A34228D31B1B89
:1019A0008B618B697BB9056835F82C309BB223F4C9
:1019B000804323F0700383F4005343F4004343F067
:1019C000800325F82C3012F0400F0ED002680D78FD
:1019D00032F825309BB223F4E04323F0700343F444
:1019E000004343F0C00322F8253024B9204638BD17
:1019F00000238B61D5E723460A894969006802F014
:101A0000CAFDF3E70468B4F850309BB291F800C007
:101A100003EBCC03063304EB4304B4F80044C4F3F3
:101A200009048B69A3422FD31B1B8B618B697BB984
:101A3000056835F82C309BB223F4804323F0700303
:101A400083F4005343F4004343F0800325F82C3023
:101A500012F0400F0FD1026891F800C032F82C301C
:101A60009BB223F4E04323F0700343F4004343F0BC
:101A7000C00322F82C30002CB8D023464A8949698B
:101A8000006802F088FDB1E700238B61CEE738B52E
:101A900000286ED0044690F89132A3B1032384F855
:101AA000913200236371206801F0FFFD234653F853
:101AB000040B0ECB01F0E9FD50B1022384F8913202
:101AC0000125284638BD80F8903203F019FDE5E77E
:101AD0000021206801F0F3FD0346A8B902462079F1
:101AE000904216D902EB820104EBC1010120487437
:101AF0000A740020C87408624862013202EB820155
:101B0000C9006050D2B2EAE7022384F8913201257D
:101B1000D7E7984217D903EB830204EBC2020021F6
:101B200082F8511182F8503182F85311C2F86011D5
:101B3000C2F8641103EB830204EBC202C2F868111D
:101B40000133DBB2E5E7234653F8040B0ECB01F07B
:101B5000B8FD054620B1022384F891320125B0E793
:101B600000236373012384F89132206802F011F995
:101B7000A7E70125A5E738B590F89032012B11D0E1
:101B80000446012580F89052006801F085FD294641
:101B9000204603F0CAFD206802F0F9F8002084F81E
:101BA000900238BD0220FCE770B505460C4616468B
:101BB00012F0400F00F00E810268B2F850309BB274
:101BC000097803EBC103023302EB4302B2F80024AD
:101BD000C2F30902A36993424ED99B1AA361A36978
:101BE000002B66D16378002B49D12B68B3F85020C5
:101BF00092B2134403EB0113B3F80424C2F30902B5
:101C0000A3F80424B3F804246FEA42426FEA524274
:101C100092B2A3F804242B686278002A3CD1B3F86E
:101C2000502092B21344227803EB0213B3F80C2431
:101C3000C2F30902A3F80C24B3F80C246FEA424261
:101C40006FEA524292B2A3F80C242178284603F09E
:101C50008BFC16F4804F41D02A68217832F821306D
:101C60009BB223F4E04323F0700343F4404343F07A
:101C7000800322F8213031E00023A361AFE7012B7C
:101C8000C9D12B68B3F8502092B2134403EB01136F
:101C90000022A3F80424BEE7012AD6D1B3F85020CD
:101CA00092B21344227803EB02130022A3F80C240F
:101CB000CBE716F4804F0DD0286830F821309BB266
:101CC00023F4E04323F0700343F4404343F08003E4
:101CD00020F8213094F82430012B12D02A68217882
:101CE00032F821309BB223F4E04323F0400383F029
:101CF000300343F4004343F0800322F821300020F6
:101D000070BD636913446361E3691344E361216A4D
:101D10002369994224D3C91A21626278002A44D1E6
:101D20002A68B2F8501089B20A44217802EB0112F5
:101D3000B2F80414C1F30901A2F804143E2B1BD914
:101D4000580913F01F0F00D10138B2F8041489B2FA
:101D5000800280B2014341F40041A2F8041426E05D
:101D600021B9002384F824301346D6E7002384F8F1
:101D7000243023620B46D0E74BB9B2F804146FEA63
:101D800041416FEA514189B2A2F804140FE05908A9
:101D900013F0010F00D00131B2F8040480B28902BF
:101DA00089B20143A2F8041401E0012A06D09BB2D3
:101DB00022896169286801F0F4FF8FE72A68B2F888
:101DC000501089B20A44217802EB011299B2A2F8AC
:101DD0000414ECE70268B2F850309BB2097803EBC8
:101DE000C103063302EB4302B2F80024C2F3090236
:101DF000A36993424FD39B1AA361A369002B67D1B8
:101E00006378002B4AD12B68B3F8502092B2134468
:101E100003EB0113B3F80424C2F30902A3F804246A
:101E2000B3F804246FEA42426FEA524292B2A3F836
:101E300004242B686278002A3DD1B3F8502092B276
:101E40001344227803EB0213B3F80C24C2F3090203
:101E5000A3F80C24B3F80C246FEA42426FEA524212
:101E600092B2A3F80C242178284603F07DFB16F4E7
:101E7000804F7FF433AF2A68217832F821309BB24B
:101E800023F4E04323F0700343F4404343F0800322
:101E900022F8213022E70023A361AEE7012BC8D14D
:101EA0002B68B3F8502092B2134403EB01130022C5
:101EB000A3F80424BDE7012AD5D1B3F8502092B28B
:101EC0001344227803EB02130022A3F80C24CAE780
:101ED00016F4804F0DD1286830F821309BB223F4DE
:101EE000E04323F0700343F4404343F0800320F8C1
:101EF000213094F82430012B7FF4F0AE6369134451
:101F00006361E3691344E361216A2369994224D33D
:101F1000C91A21622A686178002943D1B2F85010A9
:101F200089B20A44217802EB0112B2F80C14C1F311
:101F30000901A2F80C143E2B1BD9580913F01F0FEE
:101F400000D10138B2F80C1489B2800280B201438A
:101F500041F40041A2F80C1426E021B9002384F8D2
:101F600024301346D6E70023236284F824300B463E
:101F7000D0E74BB9B2F80C146FEA41416FEA514116
:101F800089B2A2F80C140FE0590813F0010F00D029
:101F90000131B2F80C0480B2890289B20143A2F87F
:101FA0000C1401E0012906D09BB26289616928689E
:101FB00001F0F7FE92E6B2F8501089B20A44217897
:101FC00002EB011299B2A2F80C14EDE72DE9F041F1
:101FD00005462868B0F8443013F4004F00F09D82A5
:101FE000B0F84440A3B214F00F0440F0DE8013F0C8
:101FF000100F6BD003889AB213F4006F40F09980F1
:1020000012F4004FE5D0038823F070031B051B0D6D
:1020100043F0800303802868B0F850309BB295F8F5
:10202000502103EBC203063300EB4303B3F8003443
:10203000C3F30903C5F86C318BB1D5F8641171B1E4
:10204000B5F8562102F0A7FAD5F86431D5F86C211D
:102050001344C5F864310021284603F079FA2A6850
:10206000138899B213F4006FB3D101F44051B1F564
:10207000405FAED0B2F850309BB21A44B2F80C3484
:10208000C3F30903A2F80C34D5F860313E2B73D9A1
:10209000590913F01F0F00D10139B2F80C349BB26B
:1020A000890289B20B4343F40043A2F80C342A6836
:1020B00013889BB223F4804323F0700383F44053CE
:1020C00043F4004343F08003138082E703889BB20C
:1020D00023F4E14323F070036FEA43436FEA534371
:1020E0009BB203802A68B2F850309BB2297C03EB84
:1020F000C103023302EB4302B2F80034C3F3090315
:10210000EB626A6A1A446A620021284603F02CFADC
:102110006B7B002B3FF45DAFAB6A002B7FF459AFB4
:102120006B7B2A6843F08003A2F84C3000236B736A
:102130004FE7B0F850309BB295F8502103EBC20343
:10214000063300EB4303B3F80034C3F30903C5F8C7
:102150006C31B5F8562105F5267102F01CFA2A6893
:10216000138823F070031B051B0D43F080031380BD
:10217000284603F0E5F92CE74BB9B2F80C346FEAC6
:1021800043436FEA53439BB2A2F80C348FE75908DC
:1021900013F0010F00D00131B2F80C3498B28B0269
:1021A0009BB20343A2F80C3481E730F824309EB28E
:1021B00013F4004F50D116F0800F3FF40AAF04EB38
:1021C0008401C900103129442A6832F824309BB2B6
:1021D00023F4E14323F070036FEA43436FEA534370
:1021E0009BB222F8243004EB840305EBC303DB7CB1
:1021F000012B00F0F28016F4807F40F0898128687E
:10220000B0F850309BB204EB840205EBC202167C9E
:1022100003EBC603023300EB4303B3F80034C3F30C
:102220000903621C02EB820255F832209A4240F206
:102230005281671C07EB8707D21A45F83720621CCA
:1022400002EB820255F83220002A40F04B813146E1
:10225000284603F089F9BCE630F8243023F07003F7
:102260001B051B0D43F0800320F8243004EB840190
:10227000C90001F5A87105EB010804EB840305EB27
:10228000C30393F85C31002B42D12868B0F850307A
:102290009BB204EB840205EBC20292F8502103EBDF
:1022A000C203063300EB4303B3F80074C7F3090716
:1022B00017BB04EB840305EBC303D3F86C213A444A
:1022C000C3F86C21D3F864213A44C3F86421D3F8ED
:1022D00068313BB104EB840305EBC303D3F86031F1
:1022E0009F4275D204EB840305EBC30393F85011AE
:1022F000284603F02DF95EE704EB840105EBC101EC
:102300003B46B1F85621D1F8641102F044F9D0E708
:1023100004EB840305EBC30393F85331022B35D050
:10232000296804EB840205EBC20292F8500131F8EF
:1023300020309BB223F4E04323F0700343F40043C6
:1023400043F0C00321F82030286892F8502130F87B
:10235000223013F4804F20D0B0F850309BB203EB02
:10236000C203023300EB4303B3F80074C7F3090759
:10237000002F9ED004EB840105EBC1013B46B1F870
:102380005821D1F8641102F006F992E7324641462D
:102390002846FFF7EEFA07468BE7B0F850309BB2BD
:1023A00003EBC203063300EB4303B3F80074C7F337
:1023B0000907002F3FF47DAF04EB840105EBC10159
:1023C0003B46B1F85A21D1F8641102F0E4F870E705
:1023D0004146286801F0F8FCEDE6631C03EB83033B
:1023E000DB000022EA5004EB840305EBC3031B7FF0
:1023F0001BB316F0400F3BD004EB840305EBC30383
:102400005B7C1BBB2B68B3F8502092B2134404EBE7
:10241000840205EBC202127C03EB0213B3F804241E
:10242000C2F30902A3F80424B3F804246FEA424279
:102430006FEA524292B2A3F8042404EB840405EB41
:10244000C404217C284603F08FF8C2E5012BF4D1A7
:102450002B68B3F8502092B2134404EB840205EBCE
:10246000C202127C03EB02130022A3F80424E4E767
:102470002B6804EB840205EBC202527CD2B9B3F89C
:10248000502092B2134404EB840205EBC202127C8A
:1024900003EB0213B3F80C24C2F30902A3F80C24D3
:1024A000B3F80C246FEA42426FEA524292B2A3F8A8
:1024B0000C24C2E7012AC0D1B3F8502092B21344D1
:1024C00004EB840205EBC202127C03EB0213002230
:1024D000A3F80C24B1E7621C02EB8202D2000027B1
:1024E000AF50ACE604EB840205EBC202566A1E4410
:1024F0005662013404EB840205EBC202526804EB1D
:10250000840405EBC4041344636001F05DFC60E5E2
:1025100032462846FFF748FB5BE50020BDE8F08126
:1025200090F89032012B0CD010B50446012380F8AE
:1025300090324173006801F024FC002084F890027E
:1025400010BD0220704710B584B00446006801F049
:1025500022FC10F4004F20D110F4806F21D110F430
:10256000804F2FD110F4005F37D110F4805F3ED13F
:1025700010F4006F40F0878010F4007F40F0AE80D0
:1025800010F4807F27D02268B2F844309BB223F445
:1025900080739BB2A2F844301DE02046FFF716FD81
:1025A00019E02268B2F844309BB223F480639BB2F6
:1025B000A2F84430204602F0E8FF00212046FFF751
:1025C000AFFF08E02268B2F844309BB223F48043A6
:1025D0009BB2A2F8443004B010BD2268B2F8443077
:1025E0009BB223F400539BB2A2F84430F3E7226875
:1025F000B2F840309BB223F004039BB2A2F8403003
:102600002268B2F840309BB223F008039BB2A2F8D4
:102610004030204602F0DCFF2268B2F844309BB222
:1026200023F480539BB2A2F84430D4E7226832F8F6
:10263000231004AA02EB430222F8101C0133DBB280
:10264000072BF3D92268B2F840309BB243F0010364
:10265000A2F840302268B2F840309BB223F0010368
:102660009BB2A2F840302368B3F8442012F4806F84
:10267000F9D0B3F8442092B222F4806292B2A3F867
:10268000442000230BE00023DAE7226804A901EBD1
:10269000430131F8101C22F823100133DBB2072B61
:1026A000F3D92268B2F840309BB243F00803A2F895
:1026B00040302268B2F844309BB223F400639BB2EE
:1026C000A2F844302268B2F840309BB243F00403D1
:1026D000A2F84030204602F06BFF7CE72268B2F897
:1026E00044309BB223F400739BB2A2F844302046DE
:1026F00002F045FF6FE710B50446084611F0800F61
:1027000026D101F0070C0CEB8C0E4FEACE0E0EF525
:10271000A87E04EB0E010CEB8C0C04EBCC0C4FF000
:10272000000E8CF851E100F0070008700A61CB70D0
:10273000022B1DD094F89032012B1CD0012384F879
:102740009032206800F0CEFF002084F8900210BD87
:1027500001F0070C0CEB8C01C900103121440CEB8B
:102760008C0C04EBCC0C4FF0010E8CF811E0DAE786
:1027700000230B71DEE70220E9E710B504460A46A4
:1027800011F0800F1FD101F0070000EB8003DB0088
:1027900003F5A873E11800EB800004EBC0000023F0
:1027A00080F8513102F007020A7094F89032012B40
:1027B00017D0012384F89032206801F081F90020BD
:1027C00084F8900210BD01F0070000EB8003DB00ED
:1027D0001033E11800EB800004EBC00001234374C8
:1027E000E0E70220EEE710B501F0070C0CEB8C01DE
:1027F000C90001F5A8710CEB8C0E00EBCE0ECEF8E3
:102800006421CEF868310024CEF86C418EF8514135
:102810008EF850C10144006801F0D6FA204610BD80
:1028200001F0070101EB810100EBC100D0F86C0160
:10283000704738B501F0070C0CEB8C01C900103162
:102840000CEB8C0E00EBCE0ECEF824200CF1010226
:1028500002EB820440F8343001258EF83450CEF873
:10286000303000EBC402002454608EF811508EF812
:1028700010C00144006801F0A7FA204638BD38B501
:1028800001F007050279AA4235D304460B4611F040
:10289000800F1ED101EB8101C90001F5A87101442F
:1028A00003EB830300EBC303002283F851210123D0
:1028B0008B700D7094F89032012B1ED0012384F898
:1028C0009032206801F0E7F97DB1002084F8900291
:1028D00038BD05EB8501C9001031014405EB8503C6
:1028E00000EBC30301225A74E1E704F52671206866
:1028F00001F055FAE9E70120EAE70220E8E70B4694
:10290000017903F00F02914234D310B5044613F05D
:10291000800F21D103F0070202EB8201C90001F50B
:10292000A871014402EB820200EBC202002082F88F
:10293000510100228A7003F007030B7094F8903263
:10294000012B19D0012384F89032206801F0C8F9D6
:10295000002084F8900210BD03F0070202EB820110
:10296000C9001031014402EB820200EBC2020120D7
:102970005074DEE7012070470220ECE711F0800F71
:102980000BD001F0070101EB8101C90010310844AF
:1029900052B90273C3800020704701EB8101C90066
:1029A00001F5A8710844F3E70122027303811B0CAF
:1029B0004381F0E782B0084B1B68084AA2FB03235F
:1029C0005B0A00FB03F3019300BF019B5A1E0192B7
:1029D000002BF9D102B0704700000020D34D6210E7
:1029E000002800F0F18170B582B00446036813F04E
:1029F000010F2CD0994B5B6803F00C03042B1DD006
:102A0000964B5B6803F00C03082B12D06368B3F598
:102A1000803F41D0002B55D103F1804303F50433AF
:102A20001A6822F480321A601A6822F480221A602E
:102A300037E08A4B5B6813F4803FE7D0874B1B6815
:102A400013F4003F03D06368002B00F0BF812368BC
:102A500013F0020F75D0814B5B6813F00C0F5FD041
:102A60007E4B5B6803F00C03082B54D02369002BCA
:102A700000F08A807A4B01221A60FEF7B1FD05460C
:102A8000764B1B6813F0020F75D1FEF7A9FD401BB2
:102A90000228F5D903209EE1704A136843F480337D
:102AA0001360636843B3FEF79BFD05466B4B1B68E1
:102AB00013F4003FCBD1FEF793FD401B6428F5D9FA
:102AC000032088E1B3F5A02F09D0644B1A6822F4E3
:102AD00080321A601A6822F480221A60E1E703F15A
:102AE0008043A3F53C331A6842F480221A601A68C6
:102AF00042F480321A60D4E7FEF772FD0546574B68
:102B00001B6813F4003FA2D0FEF76AFD401B642847
:102B1000F5D903205FE1514B5B6813F4803FA5D1E9
:102B20004E4B1B6813F0020F03D02369012B40F0BA
:102B30004F814A4A136823F0F803616943EAC103ED
:102B40001360236813F0080F33D0A369002B5CD007
:102B5000434B0122C3F88024FEF742FD05463F4B5C
:102B60005B6A13F0020F21D1FEF73AFD401B0228E9
:102B7000F5D903202FE1394A136823F0F80361697E
:102B800043EAC1031360DCE7354B00221A60FEF70D
:102B900027FD0546314B1B6813F0020FD1D0FEF71D
:102BA0001FFD401B0228F5D9032014E10120FFF787
:102BB00001FF236813F0040F00F09680274BDB69B8
:102BC00013F0805F34D1254BDA6942F08052DA612C
:102BD000DB6903F080530193019B0125214B1B68A6
:102BE00013F4807F26D0E368012B3DD0002B53D116
:102BF00003F1804303F504331A6A22F001021A62DA
:102C00001A6A22F004021A6233E0154B0022C3F85C
:102C10008024FEF7E5FC0546104B5B6A13F0020FBB
:102C2000C7D0FEF7DDFC401B0228F5D90320D2E017
:102C30000025D3E70B4A136843F480731360FEF753
:102C4000CFFC0646074B1B6813F4807FCBD1FEF701
:102C5000C7FC801B6428F5D90320BCE000100240AB
:102C600000004242007000405F4A136A43F00103D3
:102C70001362E36833B3FEF7B3FC06465A4B1B6A94
:102C800013F0020F2FD1FEF7ABFC801B41F288330B
:102C90009842F3D903209EE0052B09D0524B1A6AC3
:102CA00022F001021A621A6A22F004021A62E0E7B4
:102CB0004D4B1A6A42F004021A621A6A42F001028B
:102CC0001A62D6E7FEF78CFC0646474B1B6A13F0E8
:102CD000020F08D0FEF784FC801B41F28833984233
:102CE000F3D9032077E0E5B9E369002B72D03E4ABF
:102CF000526802F00C02082A56D0022B17D03B4B28
:102D000000221A66FEF76CFC0446374B1B6813F072
:102D1000007F47D0FEF764FC001B0228F5D9032092
:102D200059E0314AD36923F08053D361DCE72F4B5C
:102D300000221A66FEF754FC05462B4B1B6813F065
:102D4000007F06D0FEF74CFC401B0228F5D903207B
:102D500041E0236AB3F5803F1AD023494B6823F43E
:102D60007413226A606A024313434B601F4B0122B3
:102D70001A66FEF735FC04461B4B1B6813F0007FF8
:102D80000ED1FEF72DFC001B0228F5D9032022E00E
:102D9000154A536823F40033A1680B435360DCE702
:102DA000002018E0002016E0012B16D00E4B5B68C7
:102DB00003F48031226A914211D103F47013626AE4
:102DC00093420ED1002006E001207047012002E06E
:102DD000012000E0002002B070BD0120FBE70120CF
:102DE000F9E70120F7E700BF00100240000042426F
:102DF0000F4B5B6803F00C02082A01D00D487047A6
:102E0000C3F383420C49885C13F4803F0BD0084B1A
:102E10005B68C3F34043094AD35C064A02FB00F0F7
:102E2000B0FBF3F07047064B03FB00F0704700BFA8
:102E30000010024000127A000C58000808580008E0
:102E400000093D00002800F0A08070B50D46044642
:102E5000524B1B6803F007038B420BD24F4A136897
:102E600023F007030B431360136803F007038B423F
:102E700040F08D80236813F0020F17D013F0040F79
:102E800004D0474A536843F4E0635360236813F067
:102E9000080F04D0424A536843F460535360404AD9
:102EA000536823F0F003A1680B435360236813F0C9
:102EB000010F31D06368012B20D0022B25D0384A76
:102EC000126812F0020F64D035494A6822F00302FA
:102ED00013434B60FEF784FB0646314B5B6803F0FF
:102EE0000C036268B3EB820F16D0FEF779FB801BF0
:102EF00041F288339842F0D9032045E0284A12680D
:102F000012F4003FE0D101203EE0254A126812F0A1
:102F1000007FD9D1012037E0204B1B6803F0070365
:102F2000AB420AD91D4A136823F007032B431360F1
:102F3000136803F00703AB422DD1236813F0040F8D
:102F400006D0174A536823F4E063E1680B435360EB
:102F5000236813F0080F07D0114A536823F4605315
:102F6000216943EAC1035360FFF742FF0C4B5B68E2
:102F7000C3F303130B4AD35CD8400B4B18600B4BC5
:102F80001868FEF7E9FA002070BD012070470120A3
:102F9000FAE70120F8E70120F6E700BF0020024031
:102FA00000100240F8570008000000200800002030
:102FB00070B582B00446036813F0010F36D03F4B62
:102FC000DB6913F0805F4AD13C4BDA6942F08052F2
:102FD000DA61DB6903F080530193019B0125384BD3
:102FE0001B6813F4807F3CD0344B1B6A13F440738E
:102FF00013D0626802F440729A420ED02F4A136ACC
:1030000023F440702F490126C1F840640026C1F81E
:103010004064106213F0010F37D1284A136A23F479
:10302000407361680B431362002D3FD1236813F096
:10303000020F06D0214A536823F44043A1680B4392
:103040005360236813F0100F35D01C4A536823F4E3
:103050008003E1680B435360002002B070BD00257F
:10306000BDE7174A136843F480731360FEF7B8FA9C
:103070000646134B1B6813F4807FB5D1FEF7B0FAF8
:10308000801B6428F5D90320E7E7FEF7A9FA064676
:103090000A4B1B6A13F0020FBFD1FEF7A1FA801B87
:1030A00041F288339842F3D90320D6E7D36923F05D
:1030B0008053D361BAE70020CFE700BF0010024081
:1030C000007000400000424230B4026A036A23F0FC
:1030D000010303624568836923F073030C681C4392
:1030E00022F002028B6813430B4A904206D04560DF
:1030F00084614A684263036230BC704723F008036E
:10310000CA681A4322F0040325F440754A692A4329
:103110008D691543EBE700BF002C014030B4036A12
:10312000026A22F4807202624468C26922F0730269
:103130000D68154323F400738A6843EA02230D4A9D
:10314000904206D04460C5614A68C263036230BCE5
:10315000704723F40063CA6843EA022323F48063C0
:1031600024F440544A6944EA02148A6944EA021485
:10317000E8E700BF002C014030B4036A026A22F481
:10318000805202624468C26922F4E6420D6842EA53
:10319000052223F400538D6843EA0533074DA84206
:1031A00006D04460C2614A680264036230BC704762
:1031B00024F480444D6944EA8514F2E7002C014070
:1031C00010B4036A046A24F001040462846924F0E0
:1031D000F00C4CEA021223F00A030B4382610362F3
:1031E00010BC704710B4036A046A24F0100404622F
:1031F000846924F4704C4CEA023223F0A00343EAC1
:1032000001138261036210BC7047836823F070036E
:103210000B4343F0070383607047000003681F4AB5
:1032200090420AD0B0F1804F07D0A2F5943290427C
:1032300003D002F58062904203D123F070034A6804
:103240001343164A90420AD0B0F1804F07D0A2F53E
:103250009432904203D002F58062904203D123F46D
:103260004073CA68134323F080034A691343036021
:103270008B68C3620B688362084B98420AD00123B3
:103280004361036913F0010F03D0036923F00103C5
:10329000036170470B690363F1E700BF002C014035
:1032A00040B310B5044690F83D30F3B1022384F8E2
:1032B0003D30214651F8040BFFF7B0FF012384F89D
:1032C000463084F83E3084F83F3084F8403084F84B
:1032D000413084F8423084F8433084F8443084F834
:1032E000453084F83D30002010BD80F83C30FDF7BB
:1032F0004BFFDBE70120704740B310B5044690F860
:103300003D30F3B1022384F83D30214651F8040BDF
:10331000FFF784FF012384F8463084F83E3084F8B8
:103320003F3084F8403084F8413084F8423084F8EB
:10333000433084F8443084F8453084F83D30002030
:1033400010BD80F83C30FDF745FFDBE701207047FA
:1033500030B4036A026A22F0100202624468826991
:1033600022F4E6420D6842EA052223F020038D682C
:1033700043EA05130C4DA84206D0446082614A68B6
:103380008263036230BC704723F08003CD6843EA58
:10339000051323F0400324F440644D6944EA850496
:1033A0008D6944EA8504E8E7002C014038B590F8BF
:1033B0003C30012B7BD004460D46012380F83C3085
:1033C0000C2A6FD801A353F822F000BF0134000883
:1033D000A5340008A5340008A534000829340008E5
:1033E000A5340008A5340008A534000853340008AB
:1033F000A5340008A5340008A53400087B34000873
:103400000068FFF761FE2268936943F00803936147
:103410002268936923F00403936122689369296900
:103420000B43936100203EE00068FFF791FF2268A4
:10343000936943F4006393612268936923F4806382
:10344000936122689369296943EA0123936100200B
:1034500029E00068FFF762FE2268D36943F00803A1
:10346000D3612268D36923F00403D3612268D3694E
:1034700029690B43D361002015E00068FFF77CFE4B
:103480002268D36943F40063D3612268D36923F4CB
:103490008063D3612268D369296943EA0123D36138
:1034A000002000E00120002384F83C3038BD0220D9
:1034B000FCE700BF10B4846824F47F4C42EA032286
:1034C0000A4342EA0C02826010BC704790F83C301C
:1034D000012B78D010B50446012380F83C3002233C
:1034E00080F83D300268936823F47F4323F077032C
:1034F00093600B68602B4CD023D8402B54D011D84C
:10350000202B03D00AD80BB1102B05D11946206807
:10351000FFF77BFE002028E0012026E0302BF5D0CD
:10352000012022E0502B0AD1CA6849680068FFF7E1
:1035300047FE50212068FFF768FE002015E00120BB
:1035400013E0B3F5805F3AD0B3F5005F14D0702B71
:1035500037D1CB684A6889680068FFF7ABFF2268FB
:10356000936843F0770393600020012384F83D3093
:10357000002384F83C3010BDCB684A688968006835
:10358000FFF798FF2268936843F48043936000201C
:10359000EBE7CA6849680068FFF724FE60212068ED
:1035A000FFF733FE0020E0E7CA6849680068FFF7CC
:1035B00007FE40212068FFF728FE0020D5E7002005
:1035C000D3E70120D1E702207047000090F83C20AB
:1035D000012A2CD010B40346012280F83C2002229C
:1035E00080F83D2002685068946820F0700C0868EC
:1035F00040EA0C0050601A680E4882420AD0B2F1CC
:10360000804F07D0A0F59430824203D000F580604F
:10361000824204D124F08004496821439160012250
:1036200083F83D20002083F83C0010BC7047022046
:10363000704700BF002C0140024690F83C30012B3F
:1036400021D0012380F83C30CB6823F44073886894
:10365000034323F480634868034323F4006308684A
:10366000034323F480530869034323F40053486958
:10367000034323F48043C9690B4311684B64002062
:1036800082F83C0070470220704784B004A800E92B
:103690000E00002004B0704703460020A3F8440049
:1036A0004FF43F42A3F840207047B0F8403023F475
:1036B0007C535B045B0CA0F8403000207047002076
:1036C000704784B0844604A800E90E000123ACF8DA
:1036D00040300020ACF84000ACF84400ACF850009A
:1036E00004B0704710B5034691F800C030F82C20A4
:1036F00092B222F4EC4222F0700292B2C87803280F
:103700006AD80FF2080E5EF820F000BFC337000839
:10371000D13700081D370008C9370008002048F2DB
:10372000800E42EA0E0223F82C2091F800C033F8F4
:103730002C2092B222F4E04222F0700242EA0C0203
:1037400042EA0E0223F82C200A7B002A40F0DC809B
:103750004A78002A51D0B3F8502092B21A440C781B
:1037600002EB0412B1F806C04FEA5C0C4FEA4C0CB5
:10377000A2F800C40C7833F8242012F0400F0CD0CB
:1037800033F8242092B222F4E04222F0700242F494
:10379000004242F0C00223F82420CA78012A1DD03A
:1037A000097833F8212092B222F4E04222F040025C
:1037B00082F0200242F4004242F0800223F82120ED
:1037C00017E142F40072AAE742F4C0620020A6E7C3
:1037D00042F480620020A2E70120A0E7097833F8D4
:1037E000212092B222F4E04222F0400242F4004250
:1037F00042F0800223F82120FBE0B3F8502092B27F
:103800001A440C7802EB0412B1F806C04FEA5C0CC3
:103810004FEA4C0CA2F808C4B3F8502092B21A44F4
:103820000C7802EB0412B2F80CC4CCF3090CA2F829
:103830000CC40C693E2C39D94FEA541E14F01F0FEA
:1038400001D10EF1FF3EB2F80CC41FFA8CFC4FEA16
:103850008E2E1FFA8EFE4CEA0E0C4CF4004CA2F891
:103860000CC40C7833F8242012F4804F0CD033F8B9
:10387000242092B222F4E04222F0700242F440424C
:1038800042F0800223F82420097869BB33F8212014
:1038900092B222F4804222F0700282F4405242F44A
:1038A000004242F0800223F82120A2E04CB9B2F895
:1038B0000C446FEA44446FEA5444A4B2A2F80C44A6
:1038C000CFE74FEA540C14F0010F01D00CF1010CBA
:1038D000B2F80C44A4B24FEA8C2C1FFA8CFC44EAD8
:1038E0000C04A2F80C44BCE733F8212092B222F475
:1038F000804222F0700282F4005242F4004242F010
:10390000800223F8212074E0CA78022A72D00C7851
:1039100033F8242092B222F4E24222F0700242F400
:10392000004242F0800223F82420B3F8502092B2E3
:103930001A4491F800C002EB0C12B1F808C04FEA2B
:103940005C0C4FEA4C0CA2F800C4B3F8502092B2C1
:103950001A4491F800C002EB0C12B1F80AC04FEA09
:103960005C0C4FEA4C0CA2F808C44A78002A50D1EB
:103970000C7833F8242012F4804F0CD033F8242034
:1039800092B222F4E04222F0700242F4404242F04D
:10399000800223F824200C7833F8242012F0400F02
:1039A0000CD033F8242092B222F4E04222F07002CC
:1039B00042F4004242F0C00223F8242091F800C0F3
:1039C00033F82C2092B222F4804222F0700282F46A
:1039D000405248F28004224323F82C20097833F81F
:1039E000212092B222F4E04222F04002224323F846
:1039F000212010BD0C7833F8242092B222F4E0424A
:103A000022F0700242F4014242F0800223F82420A6
:103A10008BE70C7833F8242012F4804F0CD033F865
:103A2000242092B222F4E04222F0700242F440429A
:103A300042F0800223F824200C7833F8242012F07E
:103A4000400F0CD033F8242092B222F4E04222F04E
:103A5000700242F4004242F0C00223F82420CA78E7
:103A6000012A1ED00C7833F8242092B222F4E042CE
:103A700022F0400282F0200242F4004242F0800232
:103A800023F82420097833F8212092B222F48042CE
:103A900022F0700242F4004242F0800223F821201A
:103AA000A7E70C7833F8242092B222F4E04222F007
:103AB000400242F4004242F0800223F82420E1E771
:103AC0000B7B002B46D14B7813B30A7830F82230A9
:103AD00013F0400F0CD030F822309BB223F4E043B7
:103AE00023F0700343F4004343F0C00320F8223076
:103AF0000A7830F822309BB223F4E04323F04003ED
:103B000043F4004343F0800320F822300020704744
:103B10000A7830F8223013F4804F0CD030F822307D
:103B20009BB223F4E04323F0700343F4404343F09B
:103B3000800320F822300A7830F822309BB223F438
:103B4000804323F0700343F4004343F0800320F8E4
:103B50002230DBE74B78002B4ED10A7830F8223048
:103B600013F4804F0CD030F822309BB223F4E043A2
:103B700023F0700343F4404343F0800320F82230E5
:103B80000A7830F8223013F0400F0CD030F8223091
:103B90009BB223F4E04323F0700343F4004343F06B
:103BA000C00320F822300A7830F822309BB223F488
:103BB000E04323F0700343F4004343F0C00320F8D4
:103BC00022300A7830F822309BB223F4804323F06D
:103BD000700348F2800C43EA0C0320F822300A7884
:103BE00030F822309BB223F4E04323F0400343EA51
:103BF0000C0320F8223089E70A7830F8223013F4D9
:103C0000804F0CD030F822309BB223F4E04323F0F5
:103C1000700343F4404343F0800320F822300A78D5
:103C200030F8223013F0400F0CD030F822309BB225
:103C300023F4E04323F0700343F4004343F0C00354
:103C400020F822300A7830F822309BB223F4E04387
:103C500023F0700343F4404343F0800320F8223004
:103C60000A7830F822309BB223F4E04323F040037B
:103C700048F2800C43EA0C0320F822300A7830F82E
:103C800022309BB223F4804323F0700343EA0C03F9
:103C900020F822303AE74B788BB10A7830F822309E
:103CA0009BB223F4E04323F0400383F0100343F47A
:103CB000004343F0800320F82230002070470A7848
:103CC00030F822309BB223F4804323F0700383F456
:103CD000805343F4004343F0800320F82230ECE7A4
:103CE0000B7B002B4BD14B7833B30A7830F8223062
:103CF00013F0400F0CD030F822309BB223F4E04395
:103D000023F0700343F4004343F0C00320F8223053
:103D1000CB78012B33D00A7830F822309BB223F4D1
:103D2000E04323F0400383F0200343F4004343F0D7
:103D3000800320F8223022E00A7830F8223013F491
:103D4000804F0CD030F822309BB223F4E04323F0B4
:103D5000700343F4404343F0800320F822300A7894
:103D600030F822309BB223F4804323F0700383F4B5
:103D7000405343F4004343F0800320F822300020F6
:103D8000704711B98023A0F84C3000207047002004
:103D9000704700207047B0F8440080B270470020A0
:103DA000704701335B0800EB420000F5806008E0DB
:103DB0000A7891F801C042EA0C2220F8042B023163
:103DC000013B002BF4D1704770B505460C464A788C
:103DD000012A3BD00B7B002B40F0A6828B690A693D
:103DE000934240F284829B1A8B61B5F850309BB2AB
:103DF0002B44217803EB0113B3F80C14C1F3090130
:103E0000A3F80C143E2A40F27682510912F01F0FDB
:103E100000D10139B3F80C2492B2890289B20A4365
:103E200042F40042A3F80C24227835F822309BB2E9
:103E300023F4804323F0700383F4405343F400439E
:103E400043F0800325F82230002070BD8E69096997
:103E50008E4200D90E46237B73B3E378022B4DD0FC
:103E6000236A9B1B2362217835F8213013F0400F21
:103E700000F0F581002A40F0E281B5F850309BB2A5
:103E80002B4403EB0113B3F80C24C2F30902A3F88B
:103E90000C243E2E40F2BA81710916F01F0F00D19A
:103EA0000139B3F80C2492B2890289B20A4342F470
:103EB0000042A3F80C24CBE1B6B23346E288616934
:103EC0002846FFF76EFFB5F850309BB22B4422789E
:103ED00003EB0213A3F80464227835F822309BB276
:103EE00023F4E04323F0400383F0300343F4004322
:103EF00043F0800325F822300020A6E7236A994288
:103F000080F06681227835F822309BB223F4E043BA
:103F100023F0700343F4014343F0800325F822307B
:103F2000236A9B1B2362227835F8223013F0400F5E
:103F300000F0A7806378B3BBB5F850309BB22B4438
:103F400003EB0213B3F80C24C2F30902A3F80C2408
:103F50003E2E0FD9710916F01F0F00D10139B3F8A9
:103F60000C2492B2890289B20A4342F40042A3F8B7
:103F70000C241AE04EB9B3F80C246FEA42426FEAFF
:103F8000524292B2A3F80C240FE0720816F0010F0F
:103F900000D00132B3F80C1489B2920292B20A43F3
:103FA000A3F80C2401E0012B30D0B3B2628961691F
:103FB0002846FFF7F6FE636933446361236A22698A
:103FC00093422DD99B1B23626378002B45D1B5F812
:103FD00050309BB22B44227803EB0213B3F8042435
:103FE000C2F30902A3F804243E2E1DD9710916F06C
:103FF0001F0F00D10139B3F8042492B2890289B2AB
:104000000A4342F40042A3F8042428E0B5F85030F3
:104010009BB22B4403EB0213B2B2A3F80C24C4E707
:10402000002222621E46CFE74EB9B3F804246FEA9D
:1040300042426FEA524292B2A3F804240FE072089F
:1040400016F0010F00D00132B3F8041489B29202C5
:1040500092B20A43A3F8042401E0012B06D0B3B2C4
:10406000228961692846FFF79CFE35E7B5F8503094
:104070009BB22B44227803EB0213B2B2A3F80424C0
:10408000EDE76378B3BBB5F850309BB22B4403EB3C
:104090000213B3F80424C2F30902A3F804243E2E49
:1040A0000FD9710916F01F0F00D10139B3F804249C
:1040B00092B2890289B20A4342F40042A3F804246E
:1040C0001AE04EB9B3F804246FEA42426FEA524252
:1040D00092B2A3F804240FE0720816F0010F00D08A
:1040E0000132B3F8041489B2920292B20A43A3F8DF
:1040F000042401E0012B30D0B3B222896169284643
:10410000FFF74FFE636933446361236A2269934278
:104110002DD99B1B23626378002B45D1B5F8503015
:104120009BB22B44227803EB0213B3F80C24C2F3A6
:104130000902A3F80C243E2E1DD9710916F01F0F99
:1041400000D10139B3F80C2492B2890289B20A4332
:1041500042F40042A3F80C2428E0B5F850309BB29A
:104160002B4403EB0213B2B2A3F80424C4E70022E9
:1041700022621E46CFE74EB9B3F80C246FEA4242E2
:104180006FEA524292B2A3F80C240FE0720816F0C4
:10419000010F00D00132B3F80C1489B2920292B22E
:1041A0000A43A3F80C2401E0012B06D0B3B26289C4
:1041B00061692846FFF7F5FD8EE6B5F850309BB2F1
:1041C0002B44227803EB0213B2B2A3F80C24EDE7E0
:1041D000217835F8212092B222F4E24222F07002D6
:1041E00042F4004242F0800225F82120B5F8502028
:1041F00092B22A44217802EB01129BB2A2F8043455
:10420000228961692846FFF7CCFD65E64EB9B3F80F
:104210000C246FEA42426FEA524292B2A3F80C2495
:1042200016E0720816F0010F00D00132B3F80C143A
:1042300089B2920292B20A43A3F80C2408E0B5F8BE
:1042400050309BB22B4403EB0113B2B2A3F80C2401
:10425000B3B2628961692846FFF7A3FD3CE6B2BBB1
:10426000B5F850309BB22B4403EB0113B3F8042490
:10427000C2F30902A3F804243E2E0FD9710916F0E7
:104280001F0F00D10139B3F8042492B2890289B218
:104290000A4342F40042A3F8042421E04EB9B3F8E3
:1042A00004246FEA42426FEA524292B2A3F8042415
:1042B00016E0720816F0010F00D00132B3F80414B2
:1042C00089B2920292B20A43A3F8042408E0B5F836
:1042D00050309BB22B4403EB0113B2B2A3F8042479
:1042E000B3B2228961692846FFF75BFDF4E500223D
:1042F0008A611A4679E54AB9B3F80C246FEA42425A
:104300006FEA524292B2A3F80C248DE5510812F0E4
:10431000010F00D00131B3F80C2492B2890289B2A6
:104320000A43A3F80C247FE5CB78022B4DD0012B58
:1043300040F02F8189692369994240F2E680C91AC9
:10434000A161F2B9B5F8502092B22A44217802EB6B
:104350000112B2F80414C1F30901A2F804143E2BAF
:1043600040F2D780580913F01F0F00D10138B2F87E
:10437000041489B2800280B2014341F40041A2F8E2
:1043800004146278002A40F0F680B5F8502092B20A
:104390002A44217802EB0112B2F80C14C1F309018E
:1043A000A2F80C143E2B40F2CD80590913F01F0FD8
:1043B00000D10139B2F80C349BB2890289B20B43A7
:1043C00043F40043A2F80C342EE5F2B9B0F85030B3
:1043D0009BB203440A7803EB0213B3F80424C2F33C
:1043E0000902A3F804240A693E2A31D9510912F0BE
:1043F0001F0F00D10139B3F8042492B2890289B2A7
:104400000A4342F40042A3F804246378002B51D1FC
:10441000B5F850309BB22B44227803EB0213B3F86B
:104420000C24C2F30902A3F80C2422693E2A28D9DD
:10443000510912F01F0F00D10139B3F80C2492B2C8
:10444000890289B20A4342F40042A3F80C2433E003
:104450004AB9B3F804246FEA42426FEA524292B278
:10446000A3F80424D1E7510812F0010F00D0013164
:10447000B3F8042490B28A0292B20243A3F804244F
:10448000C3E74AB9B3F80C246FEA42426FEA5242DA
:1044900092B2A3F80C240FE0510812F0010F00D0E3
:1044A0000131B3F80C2490B28A0292B20243A3F80D
:1044B0000C2401E0012B1DD0E369002B3FF4B4ACC8
:1044C000227835F8221044F2400303EA01008B43BE
:1044D00002D000287FF4A8AC35F822309BB223F438
:1044E000E04323F0700343F4004343F0C00325F896
:1044F000223099E4B5F850309BB22B44227803EB7C
:104500000213228AA3F80C24D6E70023A3610B46EA
:1045100017E74BB9B2F804146FEA41416FEA514111
:1045200089B2A2F804142CE7590813F0010F00D047
:104530000131B2F8040480B2890289B20143A2F8C1
:1045400004141EE74BB9B2F80C346FEA43436FEA28
:1045500053439BB2A2F80C3466E4590813F0010FE0
:1045600000D00131B2F80C3498B28B029BB20343F5
:10457000A2F80C3458E4012A7FF456ACB5F8502068
:1045800092B22A44217802EB01129BB2A2F80C34B9
:104590004AE4012059E410B45C0800EB420000F545
:1045A000806007E030F8042B0A70C2F307224A70DB
:1045B0000231013C002CF5D113F0010F01D003882A
:1045C0000B7010BC704710B5D0F8B842D0F8BC32B0
:1045D0005BB194F80002FF2807D09B6894F8012291
:1045E00021469847FF2384F80032002010BD0000C8
:1045F000432303800048704750000020432303807A
:10460000004870479400002043230380004870470F
:104610000C0000200A23038000487047100100208E
:1046200038B50446D0F8B85201F073F8C5F80C025A
:10463000D4F8B8324BB1D4F8BC32DB6805F503715D
:10464000D5F804029847002038BD0220FCE710B5D9
:10465000D0F8B822D0F8C042F2B101EB810300EBF0
:104660008303DB694BB101EB810C04EBCC04246ABE
:10467000B3FBF4FC04FB1C3323B10023C2F8143257
:10468000002010BD01EB810300EB83030022DA61FF
:10469000134601F02EF8F3E70220F2E7F0B583B0FD
:1046A00006460C46D0F8B87200238DF80730ADF8F6
:1046B00004300B7813F0600527D0202D53D1CA8821
:1046C000DAB113F0800F0CD0D0F8BC329B683946B9
:1046D00060789847E2883946304600F0BFFD0025F3
:1046E00044E04B7887F800328B7987F80132CA882A
:1046F000394600F0C8FD002538E0D0F8BC329B6890
:10470000002248789847002530E04F780A2F10D0D3
:104710000B2F1CD01FBB90F89C32032B03D000F052
:104720006AFA022522E0022201A900F097FD3D4627
:104730001CE090F89C32032B03D000F05CFA0225B9
:1047400014E001220DF1070100F088FD0EE090F861
:104750009C32032B0AD000F04EFA022506E000F04E
:104760004AFA022502E000F046FA0225284603B084
:10477000F0BD38B50446812100F085FF0025E562D3
:104780000121204600F07FFFC4F86C5182212046B1
:1047900000F079FF2564D4F8B8324BB1D4F8BC32BC
:1047A0005B689847D4F8B80200F0BEFFC4F8B8526E
:1047B000002038BD70B50446037CABBB4FF40073DA
:1047C0000222812100F054FF0125E5624FF40073BD
:1047D00002222946204600F04BFFC4F86C51082302
:1047E00003228221204600F043FF012323644FF47B
:1047F000077000F095FF0546C4F8B80268B3D4F816
:10480000BC321B6898470023C5F81432C5F818322B
:10481000267CCEB94FF40073D5F80422012120463E
:1048200000F06FFF304670BD40230222812100F06E
:104830001FFF0125E562402302222946204600F0A1
:1048400017FFC4F86C51CAE74023D5F804220121B0
:10485000204600F056FF0026E4E70126E2E719B102
:10486000C0F8BC120020704702207047D0F8B83260
:10487000C3F80812C3F8102200207047D0F8B832ED
:10488000C3F8041200207047D0F8B8229AB108B5D6
:10489000D2F814320BB1012008BD0123C2F8143242
:1048A000D2F8103203639BB2D2F80822812100F0C3
:1048B00020FF0020F0E702207047D0F8B82292B124
:1048C00008B5037C43B94FF40073D2F804220121E8
:1048D00000F017FF002008BD4023D2F80422012178
:1048E00000F00FFFF6E70220704798B108B50346C5
:1048F000D0F8B40210B10020C3F8B40209B1C3F873
:10490000B012012183F89C121A70184600F066FE5E
:10491000002008BD0220704719B1C0F8B412002071
:1049200070470220704708B500F09AFE002008BDCD
:1049300008B5D0F8B4322BB11B68984700B908BD50
:104940000220FCE70220FAE708B5D0F8B4325B6831
:104950009847002008BD38B5044600F52A7528465A
:1049600000F035F90123C4F89432B4F8AE32C4F83B
:10497000983294F8A81201F01F03012B08D0022BE3
:104980000BD07BB92946204600F0E6FA002038BD5E
:104990002946204600F024FBF8E72946204600F08F
:1049A0004FFBF3E701F08001204600F074FEEDE7D5
:1049B00038B504460D4691BB1346D0F89422032A1D
:1049C00003D0052A24D0084633E0D0F86011D0F88F
:1049D000642191420DD9891AC0F860118A4206D922
:1049E0008AB21946204600F05DFC284621E092B2CA
:1049F000F7E7D0F8B4321B691BB190F89C22032A68
:104A000004D0204600F056FC284612E09847F8E70C
:104A10000021C0F8941200F03EFE284609E0D0F8CC
:104A2000B4329B6933B190F89C22032A04D1984791
:104A3000002038BD0220FCE70220FAE738B5044622
:104A40000D46002953D11346D0F89422022A0CD0E7
:104A5000042A00D01AB98021204600F01CFE94F8E8
:104A6000A032012B3ED0284638BD026A416A8A42F4
:104A70001BD8C269B2FBF1F301FB13232BB991429E
:104A800003D8D0F898329A421CD3D4F8B432DB68F9
:104A90001BB194F89C22032A21D08021204600F0EB
:104AA000FAFD204600F011FCD9E7521A026292B2D8
:104AB000194600F0E0FB00231A461946204600F094
:104AC00020FECCE70022114600F0D5FB0021C4F8FF
:104AD00098120B460A46204600F013FEBFE7204618
:104AE0009847DAE7002384F8A0322846BCE7D0F8DC
:104AF000B4325B6933B190F89C22032A04D1984701
:104B00000020B1E70220AFE70220ADE770B5044610
:104B100040230022114600F0ABFD0125C4F8585196
:104B20004026C4F86461334600228021204600F00C
:104B30009FFDA561666284F89C520023C4F89432FC
:104B40006360C4F8A432D4F8B8322BB1D4F8B432CC
:104B50005B68002120469847002070BD017400204A
:104B6000704790F89C3280F89D32042380F89C3284
:104B70000020704790F89C32042B01D00020704731
:104B800090F89D3280F89C32F8E708B590F89C3296
:104B9000032B01D0002008BDD0F8B432DB69002B14
:104BA000F8D09847F6E70346002002E00130C0B293
:104BB00001331A78002AF9D1704708B54B88012BC8
:104BC00000D008BDC0F8A43200F074FBF9E70B7800
:104BD00003704B7843708B78CA7803EB02234380D1
:104BE0000B794A7903EB022383808B79CA7903EB33
:104BF0000223C380704710B50446802100F04BFDAE
:104C00000021204600F047FD10BD000030B583B004
:104C100005460C460023ADF806304A88130A013BCE
:104C2000062B00F2B98001A151F823F0494C00088D
:104C3000714C0008994C0008994D0008994D0008E6
:104C4000614D00087B4D0008D0F8B0321B680DF1B3
:104C50000601007C9847BDF806201AB1E388002BB6
:104C600040F09E80E388002B00F0A48003B030BDAC
:104C7000037C43B9D0F8B4329B6A0DF10600984723
:104C800002234370E7E7D0F8B432DB6A0DF1060087
:104C9000984702234370DEE7D2B2052A5CD801A30D
:104CA00053F822F0BD4C0008D74C0008F14C000826
:104CB0000B4D0008254D00083F4D0008D0F8B032DC
:104CC0005B6823B10DF10601007C9847C3E72146DC
:104CD000FFF791FFCAE7D0F8B0329B6823B10DF11E
:104CE0000601007C9847B6E72146FFF784FFBDE741
:104CF000D0F8B032DB6823B10DF10601007C984793
:104D0000A9E72146FFF777FFB0E7D0F8B0321B697B
:104D100023B10DF10601007C98479CE72146FFF77F
:104D20006AFFA3E7D0F8B0325B6923B10DF1060149
:104D3000007C98478FE72146FFF75DFF96E7D0F8A4
:104D4000B0329B6923B10DF10601007C984782E7E0
:104D50002146FFF750FF89E72146FFF74CFF85E723
:104D6000037C33B9D0F8B4325B6B0DF10600984781
:104D700071E72146FFF73FFF78E7037C43B9D0F89E
:104D8000B4321B6B0DF1060098470723437062E7AE
:104D90002146FFF730FF69E72146FFF72CFF65E763
:104DA0009A4228BF1A46ADF806200146284600F070
:104DB00055FA57E7284600F07DFA57E738B504461C
:104DC0008B88F3B9CB88E3B94B887F2B19D803F0D4
:104DD0007F0590F89C32032B0CD080F89E52294618
:104DE00000F07FFC204600F065FA35B1022384F81C
:104DF0009C3209E0FFF7FFFE06E0012384F89C32B5
:104E000002E02046FFF7F7FE38BD000038B5044643
:104E10000D468978284B197001290ED890F89C32DC
:104E2000022B0ED0032B21D02946FFF7E4FE224BA4
:104E300019782046FFF788FD02E02946FFF7DBFEE0
:104E400038BD81B14160032380F89C32FFF770FDCB
:104E5000022803D0204600F02DFAF1E7294620462B
:104E6000FFF7C9FEECE700F025FAE9E789B14368EE
:104E700099421DD0D9B2FFF767FD0F4B19786160D9
:104E80002046FFF755FD02280DD0204600F012FA0B
:104E9000D6E7022380F89C324160FFF755FD20469B
:104EA00000F008FACCE729462046FFF7A4FEC7E742
:104EB00000F000FAC4E700BFE802002008B5CB8884
:104EC000012B0AD190F89C32022B09D9032B11D166
:104ED0000122011D00F0C2F901E0FFF78CFE08BDC0
:104EE0005BB23BB10146002341F8083F012200F0CC
:104EF000B5F9F4E7FFF77FFEF1E708B590F89C32CB
:104F0000013B022B12D8CB88022B0CD10123C360AA
:104F1000D0F8A4320BB10323C360022200F10C01CC
:104F200000F09CF908BDFFF766FEFBE7FFF763FEA4
:104F3000F8E708B590F89C32013B022B09D84B8862
:104F4000012B00D008BD0023C0F8A43200F0B2F954
:104F5000F8E7FFF750FEF5E708B50B7803F06003BC
:104F6000202B05D0402B03D043B1FFF744FE03E0D4
:104F7000D0F8B4329B689847002008BD4B78092BC5
:104F80002BD801A252F823F0C94F0008D54F0008D2
:104F9000DB4F0008CF4F0008DB4F0008B74F000879
:104FA000B14F0008DB4F0008C34F0008BD4F000899
:104FB000FFF72CFEE0E7FFF701FFDDE7FFF726FF35
:104FC000DAE7FFF77BFFD7E7FFF797FFD4E7FFF7B5
:104FD000F4FDD1E7FFF7ADFFCEE7FFF70CFECBE71F
:104FE00038B505460C460B7803F06003202B06D03D
:104FF000402B04D01BB1FFF7FEFD002038BD95F813
:105000009C32013B022B16D82379012B0ED8D5F800
:10501000B4329B68214628469847E388002BECD1A0
:105020000028EAD1284600F045F9E6E7214628465F
:10503000FFF7E1FDE1E721462846FFF7DCFDDCE76D
:1050400070B505468B880C7804F06004202C07D0DE
:10505000DAB2402C04D05CB1FFF7CDFD002405E0AE
:10506000D5F8B4329B68284698470024204670BD86
:10507000202C09D04E78012E33D0032E0AD0002EDA
:1050800055D0FFF7B8FDF1E7D0F8B4329B689847E8
:105090000446EBE790F89C32022B04D0032B11D08E
:1050A000FFF7A9FDE2E70AB1802A03D12846FFF7FE
:1050B000A2FDDBE7114600F0EEFA8021284600F061
:1050C000EAFAD3E74B8823B91AB1802A01D0CB88FA
:1050D0001BB1284600F0EEF8C8E7114600F0DBFAF5
:1050E000F7E790F89C32022B04D0032B11D0FFF786
:1050F00082FDBBE70AB1802A03D12846FFF77BFD7A
:10510000B4E7114600F0C7FA8021284600F0C3FA40
:10511000ACE74B88002BA9D112F07F0F03D12846B2
:1051200000F0C8F8A2E7114600F0BDFAF7E790F8E2
:105130009C02022806D0032829D02846FFF75BFDF1
:10514000344693E70AB1802A13D113F0800F15D1AA
:1051500002F07F0202EB8202910001F5A87129445E
:10516000043100230B600222284600F077F8344611
:105170007CE72846FFF73FFD344677E702F07F02E1
:1051800002EB82029100103129440431E9E75BB25D
:10519000002B1FDB02F00F0000EB800005EB80000E
:1051A000D0F8580120B3002B27DB02F07F0303EB7C
:1051B00083039C0004F5A8742C4404340AB1802AAB
:1051C00024D10023236002222146284600F046F81D
:1051D00034464BE702F00F0000EB800005EB800047
:1051E00080690028DFD12846FFF705FD34463DE7FA
:1051F0002846FFF700FD344638E702F07F0303EB53
:1052000083039C0010342C440434D7E7114628460D
:1052100000F051FA10B101232360D4E7002323608A
:10522000D1E7D0B170B50D4616460446FFF7BBFC7A
:10523000431C5B009BB233802B7003236B700223F3
:1052400007E001345A1CD2B2E8540233DBB2002129
:10525000A95420780028F4D170BD704708B51346D2
:105260000222C0F89422C36103620A46002100F0C2
:1052700040FA002008BD08B513460A46002100F098
:1052800038FA002008BD08B513460322C0F894225E
:10529000C0F85C31C0F860310A46002100F031FAF4
:1052A000002008BD08B513460A46002100F029FA7F
:1052B000002008BD08B50423C0F8943200231A4624
:1052C000194600F016FA002008BD08B50523C0F8FD
:1052D000943200231A46194600F013FA002008BD44
:1052E00008B500220F491048FFF7FFFA70B90F49BF
:1052F0000D48FFF711FB60B90D490B48FFF7AFFAF6
:1053000050B90948FFF70FFB48B908BDFBF798FEF5
:10531000EDE7FBF795FEEFE7FBF792FEF1E7FBF712
:105320008FFEF2E760010020EC020020D800002090
:105330001C010020002070470020704710B5014676
:10534000044C2046FFF79AFA2046FFF7B6FA0020F1
:1053500010BD00BFEC02002010B5064C002206492B
:105360002046FFF783FA05492046FFF787FA002019
:1053700010BD00BFEC020020B0050020B0090020E5
:10538000094BD3F8B832D3F814320BB1012070476F
:1053900010B5054C0A4601462046FFF767FA20463D
:1053A000FFF772FA10BD00BFEC02002012230B8041
:1053B000004870474C01002004230B8000487047D0
:1053C00048010020002393421ED200B510E00CF1EA
:1053D000370C01F813C000014FEA430C0CF1010C2B
:1053E0004FF0000E01F80CE00133DBB2934209D21A
:1053F0004FEA107CB0F1204FE9D20CF1300C01F8EB
:1054000013C0E8E75DF804FB7047000038B50B4BAC
:10541000D3F8E807D3F8EC47D3F8F037C01800D139
:1054200038BD074D08222946FFF7CCFF042205F1BD
:1054300010012046FFF7C6FFF2E700BF00F0FF1F94
:105440002E01002008B51A230B80FFF7DFFF01486B
:1054500008BD00BF2C01002008B50A4628B905493F
:105460000548FFF7DEFE034808BD02490248FFF782
:10547000D8FEF8E7B00D00201C58000810B50A4609
:10548000034C21460348FFF7CCFE204610BD00BF69
:10549000B00D00203458000808B50A4628B905495F
:1054A0000548FFF7BEFE034808BD02490248FFF762
:1054B000B8FEF8E7B00D00204858000808B50A46C5
:1054C00028B905490548FFF7ACFE034808BD024965
:1054D0000248FFF7A6FEF8E7B00D00205458000878
:1054E00002280BD801A353F820F000BFFF54000896
:1054F000FD540008F954000801207047022070474D
:1055000002680E4B9A4200D0704700B583B003F595
:10551000DA33DA6942F40002DA61DB6903F400038A
:105520000193019B002211461420FCF7A5F81420DA
:10553000FCF7B2F803B05DF804FB00BF005C00406C
:1055400008B500F52671D0F8D402FFF704FA08BDBB
:1055500008B501EB810300EBC303D3F86421D0F855
:10556000D402FFF725FA08BD08B501EB810300EB73
:10557000C3035A6AD0F8D402FFF760FA08BD08B531
:10558000D0F8D402FFF701FB08BD10B504468379BB
:10559000022B09D10121D4F8D402FFF7DFFAD4F8A5
:1055A000D402FFF7B3FA10BDFBF74AFDF2E70000A3
:1055B00010B50446D0F8D402FFF7D3FAA37A23B18A
:1055C000024A136943F00603136110BD00ED00E0C9
:1055D00008B5D0F8D402FFF7CDFA08BD10B50446DF
:1055E0001D48C0F8D442C4F8C0021C4B0360082315
:1055F00003710223837100238372C3720373FCF768
:1056000046FA30BB182300221146D4F8C002FDF739
:10561000B5F9582300228021D4F8C002FDF7AEF975
:10562000C02300228121D4F8C002FDF7A7F94FF46E
:10563000887300220121D4F8C002FDF79FF94FF4CE
:10564000807300228221D4F8C002FDF797F9002070
:1056500010BDFBF7F5FCD5E7D0110020005C004041
:1056600008B5D0F8C002FCF786FAFFF739FF08BD8D
:1056700008B594461A466346D0F8C002FDF73BF8D9
:10568000FFF72EFF08BD08B5D0F8C002FDF775F88A
:10569000FFF726FF08BD08B5D0F8C002FDF7EFF808
:1056A000FFF71EFF08BD08B5D0F8C002FDF727F9C7
:1056B000FFF716FF08BDD0F8C03211F0800F08D1F7
:1056C00001F07F0101EB810103EBC10393F852016B
:1056D000704701F07F0101EB810103EBC103987C6E
:1056E000704708B5D0F8C002FCF71AFFFFF7F8FEC4
:1056F00008BD08B5D0F8C002FDF79BF8FFF7F0FE33
:1057000008BD08B5D0F8C002FDF76DF8FFF7E8FE58
:1057100008BD08B5D0F8C002FDF782F808BD00004A
:1057200000487047B00F002070477047FBF72AFD14
:105730000B480C490C4A002302E0D458C4500433EF
:10574000C4188C42F9D3094A094C002301E01360C4
:105750000432A242FBD300F017F8FBF7B3FC70470A
:10576000000000207C0100206C5800087C01002013
:10577000A8140020FEE703460244934200D170477C
:1057800003F8011BF9E7000070B500260C4D0D4B26
:105790005B1B9C10A64209D1002600F019F80A4DA7
:1057A0000A4B5B1B9C10A64205D170BD55F8043B0B
:1057B00098470136EEE755F8043B98470136F2E783
:1057C00064580008645800086458000868580008C5
:1057D000F8B500BFF8BC08BC9E467047F8B500BFDE
:0857E000F8BC08BC9E467047AE
:1057E80000010002000400080010002000400080B2
:1057F8000000000000000000010203040607080979
:105808000102000002030405060708090A0B0C0D33
:105818000E0F101053544D3332205669727475614F
:105828006C20436F6D506F727400000053544D69C3
:1058380063726F656C656374726F6E696373000081
:1058480043444320436F6E66696700004344432026
:0C585800496E74657266616365000000B3
:04586400F50C000837
:04586800D10C000857
:10586C0000127A000100000010000000090743003C
:10587C00020104C0320904000001020201000524E7
:10588C000010010524010001042402020524060075
:10589C00010705820308001009040100020A000038
:1058AC0000070501024000000705810240000000CE
:1058BC0009024300020100C0320904000001020287
:1058CC00010005240010010524010001042402023A
:1058DC0005240600010705820308001009040100D5
:1058EC00020A0000000705010240000007058102C2
:1058FC004000000009024300020100C0320904000C
:10590C000001020201000524001001052401000120
:10591C000424020205240600010705820308001076
:10592C0009040100020A0000000705010200020040
:10593C000705810200020000B54700087347000804
:10594C009D46000800000000C74500084F460008AF
:10595C0021460008000000000000000000000000CC
:10596C00FD450008F14500080946000815460008E9
:10597C000A06000200000040010000005953000814
:10598C0035530008395300083D5300081A03000032
:10599C0000000000000000000000000000000000FB
:1059AC0000000000000000000403090412010002C2
:1059BC000202004083044057000201020301000070
:1059CC00AD530008B95300087D5400085954000821
:0C59DC004554000899540008BD54000810
:040000050800572D6B
:00000001FF
