:020000040800F2
:1000000000500020713B0008990200089B02000884
:100010009D0200089F020008A102000800000000E5
:10002000000000000000000000000000A302000823
:10003000A502000800000000A7020008A9020008AD
:10004000B93B0008B93B0008B93B0008B93B0008C0
:10005000B93B0008B93B0008B93B0008B93B0008B0
:10006000B93B0008B93B0008B93B0008B93B0008A0
:10007000B93B0008B93B0008B93B0008B93B000890
:10008000B93B0008B93B0008B93B0008B93B000880
:10009000B1020008B93B0008B93B0008B93B0008B1
:1000A000B93B0008B93B0008B93B0008B93B000860
:1000B000B93B0008B93B0008B93B0008B93B000850
:1000C000B93B0008B93B0008B93B0008B93B000840
:1000D000B93B0008B93B0008B93B0008B93B000830
:1000E000B93B0008B93B0008B93B0008000000001C
:1000F0000000000000000000000000000000000000
:0C01000000000000000000005FF808F1A3
:10010C0010B5054C237833B9044B13B10448AFF345
:10011C0000800123237010BD580100200000000056
:10012C00143C000808B5034B1BB103490348AFF35B
:10013C00008008BD000000005C010020143C000899
:10014C0084B00F4B9A6942F020029A619A6902F0CE
:10015C0020020192019A9A6942F004029A619A690A
:10016C0002F004020292029A9A6942F008029A6121
:10017C009B6903F008030393039B04B0704700BF13
:10018C0000100240704772B6FEE710B594B00AAC8E
:10019C0028220021204603F00AFD00230593069334
:1001AC0007930893099301930293039304930122F9
:1001BC000A924FF480330B930E92022211921293F7
:1001CC004FF4E0131393204601F07AF9B8B90F23DA
:1001DC00059302210691002307934FF48062089245
:1001EC00099305A801F09EFB58B910230193002335
:1001FC00049301A801F04CFC28B914B010BDFFF712
:10020C00C2FFFFF7C0FFFFF7BEFF000008B500F00C
:10021C0079F8FFF7BAFFFFF793FF03F0BDFA00235D
:10022C0003E0074AD3540133DBB23F2BF9D96420E6
:10023C0000F08CF840220249024802F094FDF6E7E7
:10024C0074010020BC01002082B00E4B9A6942F070
:10025C0001029A619A6902F001020092009ADA692D
:10026C0042F08052DA61DB6903F080530193019B09
:10027C00054A536823F0E06343F00073536002B007
:10028C00704700BF0010024000000140FEE7FEE78F
:10029C00FEE7FEE7FEE770477047704708B500F0D1
:1002AC0043F808BD08B5024800F0C6FE08BD00BF03
:1002BC00D80600207047000010B504460E4B1A7883
:1002CC004FF47A73B3FBF2F30C4A1068B0FBF3F003
:1002DC0000F0B4F868B90F2C01D901200AE0002213
:1002EC0021464FF0FF3000F08BF8054B1C600020CE
:1002FC0000E0012010BD00BF040000200000002021
:10030C000800002008B5074A136843F01003136077
:10031C00032000F063F80F20FFF7CEFFFFF794FFE8
:10032C00002008BD00200240034A1168034B1B78D3
:10033C000B441360704700BFB40100200400002080
:10034C00014B1868704700BFB401002038B5044653
:10035C00FFF7F6FF0546B4F1FF3F02D0044B1B78C4
:10036C001C44FFF7EDFF401BA042FAD338BD00BF81
:10037C0004000020002808DB0901C9B200F160402C
:10038C0000F5614080F80013704700F00F00090180
:10039C00C9B2014B1954704714ED00E000B500F0E0
:1003AC000700C0F1070CBCF1040F28BF4FF0040C80
:1003BC00031D062B0FD9C31E4FF0FF3E0EFA0CF097
:1003CC0021EA000199400EFA03FE22EA0E0241EAEC
:1003DC0002005DF804FB0023EEE70000074AD36837
:1003EC0023F4E0631B041B0C000200F4E0600343E5
:1003FC0043F0BF6343F40033D360704700ED00E07B
:10040C0010B50446054BD868C0F30220FFF7C6FFB1
:10041C0001462046FFF7AEFF10BD00BF00ED00E027
:10042C00002807DB00F01F02400901239340024A19
:10043C0042F82030704700BF00E100E00138B0F115
:10044C00807F0BD24FF0E0235861054AF02182F8EF
:10045C0023100020986107221A6170470120704711
:10046C0000ED00E038B512F4804F44D00468B4F8C5
:10047C0050309BB291F800C003EBCC03023304EB79
:10048C004304B4F80044C4F309048B69A34228D391
:10049C001B1B8B618B697BB9056835F82C309BB2C3
:1004AC0023F4804323F0700383F4005343F400439C
:1004BC0043F0800325F82C3012F0400F0ED0026868
:1004CC000D7832F825309BB223F4E04323F070030F
:1004DC0043F4004343F0C00322F8253024B92046EE
:1004EC0038BD00238B61D5E723460A89496900682A
:1004FC0002F0E1FAF3E70468B4F850309BB291F8DB
:10050C0000C003EBCC03063304EB4304B4F8004403
:10051C00C4F309048B69A3422FD31B1B8B618B691A
:10052C007BB9056835F82C309BB223F4804323F05B
:10053C00700383F4005343F4004343F0800325F825
:10054C002C3012F0400F0FD1026891F800C032F835
:10055C002C309BB223F4E04323F0700343F40043AC
:10056C0043F0C00322F82C30002CB8D023464A8923
:10057C004969006802F09FFAB1E700238B61CEE76E
:10058C0038B500286ED0044690F89132A3B10323FD
:10059C0084F8913200236371206801F015FB234627
:1005AC0053F8040B0ECB01F0FFFA50B1022384F880
:1005BC0091320125284638BD80F8903203F0CAF9F3
:1005CC00E5E70021206801F009FB0346A8B90246C3
:1005DC002079904216D902EB820104EBC101012073
:1005EC0048740A740020C87408624862013202EB35
:1005FC008201C9006050D2B2EAE7022384F891323A
:10060C000125D7E7984217D903EB830204EBC2020A
:10061C00002182F8511182F8503182F85311C2F83E
:10062C006011C2F8641103EB830204EBC202C2F83E
:10063C0068110133DBB2E5E7234653F8040B0ECB0C
:10064C0001F0CEFA054620B1022384F8913201253F
:10065C00B0E700236373012384F89132206801F022
:10066C0028FEA7E70125A5E738B590F89032012BB5
:10067C0011D00446012580F89052006801F09BFAD5
:10068C002946204603F06DFA206801F010FE002088
:10069C0084F8900238BD0220FCE770B505460C4684
:1006AC00164612F0400F00F00E810268B2F850307E
:1006BC009BB2097803EBC103023302EB4302B2F89D
:1006CC000024C2F30902A36993424ED99B1AA36179
:1006DC00A369002B66D16378002B49D12B68B3F842
:1006EC00502092B2134403EB0113B3F80424C2F369
:1006FC000902A3F80424B3F804246FEA42426FEA17
:10070C00524292B2A3F804242B686278002A3CD19E
:10071C00B3F8502092B21344227803EB0213B3F8CF
:10072C000C24C2F30902A3F80C24B3F80C246FEACE
:10073C0042426FEA524292B2A3F80C242178284626
:10074C0003F03CF916F4804F41D02A68217832F836
:10075C0021309BB223F4E04323F0700343F4404375
:10076C0043F0800322F8213031E00023A361AFE78E
:10077C00012BC9D12B68B3F8502092B2134403EB70
:10078C0001130022A3F80424BEE7012AD6D1B3F842
:10079C00502092B21344227803EB02130022A3F8E8
:1007AC000C24CBE716F4804F0DD0286830F821309C
:1007BC009BB223F4E04323F0700343F4404343F033
:1007CC00800320F8213094F82430012B12D02A68B1
:1007DC00217832F821309BB223F4E04323F040031C
:1007EC0083F0300343F4004343F0800322F82130BC
:1007FC00002070BD636913446361E3691344E361D2
:10080C00216A2369994224D3C91A21626278002A89
:10081C0044D12A68B2F8501089B20A44217802EB0C
:10082C000112B2F80414C1F30901A2F804143E2B0E
:10083C001BD9580913F01F0F00D10138B2F804145A
:10084C0089B2800280B2014341F40041A2F8041441
:10085C0026E021B9002384F824301346D6E7002380
:10086C0084F8243023620B46D0E74BB9B2F8041459
:10087C006FEA41416FEA514189B2A2F804140FE0CA
:10088C00590813F0010F00D00131B2F8040480B202
:10089C00890289B20143A2F8041401E0012A06D0AE
:1008AC009BB222896169286801F00BFD8FE72A68E9
:1008BC00B2F8501089B20A44217802EB011299B2B5
:1008CC00A2F80414ECE70268B2F850309BB2097835
:1008DC0003EBC103063302EB4302B2F80024C2F36C
:1008EC000902A36993424FD39B1AA361A369002BFE
:1008FC0067D16378002B4AD12B68B3F8502092B2A1
:10090C00134403EB0113B3F80424C2F30902A3F854
:10091C000424B3F804246FEA42426FEA524292B2C2
:10092C00A3F804242B686278002A3DD1B3F8502038
:10093C0092B21344227803EB0213B3F80C24C2F3E3
:10094C000902A3F80C24B3F80C246FEA42426FEAB4
:10095C00524292B2A3F80C242178284603F02EF8C8
:10096C0016F4804F7FF433AF2A68217832F82130A7
:10097C009BB223F4E04323F0700343F4404343F071
:10098C00800322F8213022E70023A361AEE7012B7C
:10099C00C8D12B68B3F8502092B2134403EB011367
:1009AC000022A3F80424BDE7012AD5D1B3F85020C6
:1009BC0092B21344227803EB02130022A3F80C2406
:1009CC00CAE716F4804F0DD1286830F821309BB25D
:1009DC0023F4E04323F0700343F4404343F08003DB
:1009EC0020F8213094F82430012B7FF4F0AE6369A9
:1009FC0013446361E3691344E361216A23699942F7
:100A0C0024D3C91A21622A686178002943D1B2F82B
:100A1C00501089B20A44217802EB0112B2F80C147E
:100A2C00C1F30901A2F80C143E2B1BD9580913F081
:100A3C001F0F00D10138B2F80C1489B2800280B2B9
:100A4C00014341F40041A2F80C1426E021B9002323
:100A5C0084F824301346D6E70023236284F824302C
:100A6C000B46D0E74BB9B2F80C146FEA41416FEA70
:100A7C00514189B2A2F80C140FE0590813F0010F80
:100A8C0000D00131B2F80C0480B2890289B2014362
:100A9C00A2F80C1401E0012906D09BB262896169AD
:100AAC00286801F00EFC92E6B2F8501089B20A44A4
:100ABC00217802EB011299B2A2F80C14EDE72DE9A2
:100ACC00F04105462868B0F8443013F4004F00F0AC
:100ADC009D82B0F84440A3B214F00F0440F0DE80C5
:100AEC0013F0100F6BD003889AB213F4006F40F020
:100AFC00998012F4004FE5D0038823F070031B0596
:100B0C001B0D43F0800303802868B0F850309BB273
:100B1C0095F8502103EBC203063300EB4303B3F803
:100B2C000034C3F30903C5F86C318BB1D5F86411EB
:100B3C0071B1B5F8562101F0BEFFD5F86431D5F886
:100B4C006C211344C5F864310021284602F02AFFB9
:100B5C002A68138899B213F4006FB3D101F4405191
:100B6C00B1F5405FAED0B2F850309BB21A44B2F837
:100B7C000C34C3F30903A2F80C34D5F860313E2BC6
:100B8C0073D9590913F01F0F00D10139B2F80C3485
:100B9C009BB2890289B20B4343F40043A2F80C3494
:100BAC002A6813889BB223F4804323F0700383F4E8
:100BBC00405343F4004343F08003138082E70388DF
:100BCC009BB223F4E14323F070036FEA43436FEAD3
:100BDC0053439BB203802A68B2F850309BB2297CF5
:100BEC0003EBC103023302EB4302B2F80034C3F34C
:100BFC000903EB626A6A1A446A620021284602F011
:100C0C00DDFE6B7B002B3FF45DAFAB6A002B7FF4FA
:100C1C0059AF6B7B2A6843F08003A2F84C30002359
:100C2C006B734FE7B0F850309BB295F8502103EB43
:100C3C00C203063300EB4303B3F80034C3F30903D8
:100C4C00C5F86C31B5F8562105F5267101F033FF66
:100C5C002A68138823F070031B051B0D43F08003D7
:100C6C001380284602F096FE2CE74BB9B2F80C34F0
:100C7C006FEA43436FEA53439BB2A2F80C348FE7FD
:100C8C00590813F0010F00D00131B2F80C3498B2AE
:100C9C008B029BB20343A2F80C3481E730F824306A
:100CAC009EB213F4004F50D116F0800F3FF40AAFF0
:100CBC0004EB8401C900103129442A6832F824302D
:100CCC009BB223F4E14323F070036FEA43436FEAD2
:100CDC0053439BB222F8243004EB840305EBC3038B
:100CEC00DB7C012B00F0F28016F4807F40F08981D0
:100CFC002868B0F850309BB204EB840205EBC202BA
:100D0C00167C03EBC603023300EB4303B3F8003449
:100D1C00C3F30903621C02EB820255F832209A429B
:100D2C0040F25281671C07EB8707D21A45F837202F
:100D3C00621C02EB820255F83220002A40F04B81F3
:100D4C003146284602F03AFEBCE630F8243023F057
:100D5C0070031B051B0D43F0800320F8243004EBBB
:100D6C008401C90001F5A87105EB010804EB8403AB
:100D7C0005EBC30393F85C31002B42D12868B0F823
:100D8C0050309BB204EB840205EBC20292F8502166
:100D9C0003EBC203063300EB4303B3F80074C7F351
:100DAC00090717BB04EB840305EBC303D3F86C21D1
:100DBC003A44C3F86C21D3F864213A44C3F8642153
:100DCC00D3F868313BB104EB840305EBC303D3F8D0
:100DDC0060319F4275D204EB840305EBC30393F897
:100DEC005011284602F0DEFD5EE704EB840105EBB2
:100DFC00C1013B46B1F85621D1F8641101F05BFEFC
:100E0C00D0E704EB840305EBC30393F85331022BB7
:100E1C0035D0296804EB840205EBC20292F850012C
:100E2C0031F820309BB223F4E04323F0700343F4F9
:100E3C00004343F0C00321F82030286892F8502179
:100E4C0030F8223013F4804F20D0B0F850309BB2E1
:100E5C0003EBC203023300EB4303B3F80074C7F394
:100E6C000907002F9ED004EB840105EBC1013B4622
:100E7C00B1F85821D1F8641101F01DFE92E7324609
:100E8C0041462846FFF7EEFA07468BE7B0F850309C
:100E9C009BB203EBC203063300EB4303B3F80074BD
:100EAC00C7F30907002F3FF47DAF04EB840105EB7A
:100EBC00C1013B46B1F85A21D1F8641101F0FBFD98
:100ECC0070E74146286801F00FFAEDE6631C03EB6E
:100EDC008303DB000022EA5004EB840305EBC3031D
:100EEC001B7F1BB316F0400F3BD004EB840305EBC8
:100EFC00C3035B7C1BBB2B68B3F8502092B213442A
:100F0C0004EB840205EBC202127C03EB0213B3F870
:100F1C000424C2F30902A3F80424B3F804246FEAEE
:100F2C0042426FEA524292B2A3F8042404EB8404C6
:100F3C0005EBC404217C284602F040FDC2E5012BE0
:100F4C00F4D12B68B3F8502092B2134404EB840212
:100F5C0005EBC202127C03EB02130022A3F804245B
:100F6C00E4E72B6804EB840205EBC202527CD2B995
:100F7C00B3F8502092B2134404EB840205EBC20286
:100F8C00127C03EB0213B3F80C24C2F30902A3F88E
:100F9C000C24B3F80C246FEA42426FEA524292B22C
:100FAC00A3F80C24C2E7012AC0D1B3F8502092B2A6
:100FBC00134404EB840205EBC202127C03EB021314
:100FCC000022A3F80C24B1E7621C02EB8202D200CF
:100FDC000027AF50ACE604EB840205EBC202566A64
:100FEC001E445662013404EB840205EBC2025268C3
:100FFC0004EB840405EBC4041344636001F074F93E
:10100C0060E532462846FFF748FB5BE50020BDE86B
:10101C00F08190F89032012B0CD010B504460123CE
:10102C0080F890324173006801F03BF9002084F89D
:10103C00900210BD0220704710B584B004460068C1
:10104C0001F039F910F4004F20D110F4806F21D148
:10105C0010F4804F2FD110F4005F37D110F4805F63
:10106C003ED110F4006F40F0878010F4007F40F008
:10107C00AE8010F4807F27D02268B2F844309BB247
:10108C0023F480739BB2A2F844301DE02046FFF796
:10109C0016FD19E02268B2F844309BB223F4806349
:1010AC009BB2A2F84430204602F099FC0021204665
:1010BC00FFF7AFFF08E02268B2F844309BB223F48C
:1010CC0080439BB2A2F8443004B010BD2268B2F841
:1010DC0044309BB223F400539BB2A2F84430F3E7A4
:1010EC002268B2F840309BB223F004039BB2A2F802
:1010FC0040302268B2F840309BB223F008039BB218
:10110C00A2F84030204602F08DFC2268B2F8443040
:10111C009BB223F480539BB2A2F84430D4E72268EC
:10112C0032F8231004AA02EB430222F8101C0133FC
:10113C00DBB2072BF3D92268B2F840309BB243F0F4
:10114C000103A2F840302268B2F840309BB223F081
:10115C0001039BB2A2F840302368B3F8442012F488
:10116C00806FF9D0B3F8442092B222F4806292B22C
:10117C00A3F8442000230BE00023DAE7226804A93B
:10118C0001EB430131F8101C22F823100133DBB2C0
:10119C00072BF3D92268B2F840309BB243F0080316
:1011AC00A2F840302268B2F844309BB223F40063BA
:1011BC009BB2A2F844302268B2F840309BB243F0A4
:1011CC000403A2F84030204602F01CFC7CE72268A5
:1011DC00B2F844309BB223F400739BB2A2F84430B3
:1011EC00204602F0F6FB6FE710B50446084611F0F6
:1011FC00800F26D101F0070C0CEB8C0E4FEACE0EB3
:10120C000EF5A87E04EB0E010CEB8C0C04EBCC0C55
:10121C004FF0000E8CF851E100F0070008700A61E5
:10122C00CB70022B1DD094F89032012B1CD00123D3
:10123C0084F89032206800F0E5FC002084F89002DD
:10124C0010BD01F0070C0CEB8C01C90010312144CE
:10125C000CEB8C0C04EBCC0C4FF0010E8CF811E069
:10126C00DAE700230B71DEE70220E9E710B504464C
:10127C000A4611F0800F1FD101F0070000EB80032C
:10128C00DB0003F5A873E11800EB800004EBC00051
:10129C00002380F8513102F007020A7094F8903262
:1012AC00012B17D0012384F89032206800F098FEAF
:1012BC00002084F8900210BD01F0070000EB8003C1
:1012CC00DB001033E11800EB800004EBC0000123BD
:1012DC004374E0E70220EEE710B501F0070C0CEBCD
:1012EC008C01C90001F5A8710CEB8C0E00EBCE0E35
:1012FC00CEF86421CEF868310024CEF86C418EF81B
:10130C0051418EF850C10144006800F0EDFF2046B9
:10131C0010BD38B501F0070C0CEB8C01C900103175
:10132C000CEB8C0E00EBCE0ECEF824200CF101024F
:10133C0002EB820440F8343001258EF83450CEF89C
:10134C00303000EBC402002454608EF811508EF83B
:10135C0010C00144006800F0C7FF204638BD38B506
:10136C0001F007050279AA4235D304460B4611F069
:10137C00800F1ED101EB8101C90001F5A871014458
:10138C0003EB830300EBC303002283F851210123F9
:10139C008B700D7094F89032012B1ED0012384F8C1
:1013AC009032206800F007FF7DB1002084F8900295
:1013BC0038BD05EB8501C9001031014405EB8503EF
:1013CC0000EBC30301225A74E1E704F5267120688F
:1013DC0000F075FFE9E70120EAE70220E8E70B4699
:1013EC00017903F00F02914234D310B5044613F087
:1013FC00800F21D103F0070202EB8201C90001F535
:10140C00A871014402EB820200EBC202002082F8B8
:10141C00510100228A7003F007030B7094F890328C
:10142C00012B19D0012384F89032206800F0E8FEDB
:10143C00002084F8900210BD03F0070202EB820139
:10144C00C9001031014402EB820200EBC202012000
:10145C005074DEE7012070470220ECE711F0800F9A
:10146C000BD001F0070101EB8101C90010310844D8
:10147C0052B90273C3800020704701EB8101C9008F
:10148C0001F5A8710844F3E70122027303811B0CD8
:10149C004381F0E782B0084B1B68084AA2FB032388
:1014AC005B0A00FB03F3019300BF019B5A1E0192E0
:1014BC00002BF9D102B0704700000020D34D621010
:1014CC00002800F0F18170B582B00446036813F077
:1014DC00010F2CD0994B5B6803F00C03042B1DD02F
:1014EC00964B5B6803F00C03082B12D06368B3F5C2
:1014FC00803F41D0002B55D103F1804303F50433D9
:10150C001A6822F480321A601A6822F480221A6057
:10151C0037E08A4B5B6813F4803FE7D0874B1B683E
:10152C0013F4003F03D06368002B00F0BF812368E5
:10153C0013F0020F75D0814B5B6813F00C0F5FD06A
:10154C007E4B5B6803F00C03082B54D02369002BF3
:10155C0000F08A807A4B01221A60FEF7F1FE0546F4
:10156C00764B1B6813F0020F75D1FEF7E9FE401B9A
:10157C000228F5D903209EE1704A136843F48033A6
:10158C001360636843B3FEF7DBFE05466B4B1B68C9
:10159C0013F4003FCBD1FEF7D3FE401B6428F5D9E2
:1015AC00032088E1B3F5A02F09D0644B1A6822F40C
:1015BC0080321A601A6822F480221A60E1E703F183
:1015CC008043A3F53C331A6842F480221A601A68EF
:1015DC0042F480321A60D4E7FEF7B2FE0546574B50
:1015EC001B6813F4003FA2D0FEF7AAFE401B642830
:1015FC00F5D903205FE1514B5B6813F4803FA5D113
:10160C004E4B1B6813F0020F03D02369012B40F0E3
:10161C004F814A4A136823F0F803616943EAC10316
:10162C001360236813F0080F33D0A369002B5CD030
:10163C00434B0122C3F88024FEF782FE05463F4B44
:10164C005B6A13F0020F21D1FEF77AFE401B0228D1
:10165C00F5D903202FE1394A136823F0F8036169A7
:10166C0043EAC1031360DCE7354B00221A60FEF736
:10167C0067FE0546314B1B6813F0020FD1D0FEF705
:10168C005FFE401B0228F5D9032014E10120FFF76F
:10169C0001FF236813F0040F00F09680274BDB69E1
:1016AC0013F0805F34D1254BDA6942F08052DA6155
:1016BC00DB6903F080530193019B0125214B1B68CF
:1016CC0013F4807F26D0E368012B3DD0002B53D13F
:1016DC0003F1804303F504331A6A22F001021A6203
:1016EC001A6A22F004021A6233E0154B0022C3F886
:1016FC008024FEF725FE0546104B5B6A13F0020FA3
:10170C00C7D0FEF71DFE401B0228F5D90320D2E0FE
:10171C000025D3E70B4A136843F480731360FEF77C
:10172C000FFE0646074B1B6813F4807FCBD1FEF7E8
:10173C0007FE801B6428F5D90320BCE00010024092
:10174C0000004242007000405F4A136A43F00103FC
:10175C001362E36833B3FEF7F3FD06465A4B1B6A7C
:10176C0013F0020F2FD1FEF7EBFD801B41F28833F3
:10177C009842F3D903209EE0052B09D0524B1A6AEC
:10178C0022F001021A621A6A22F004021A62E0E7DD
:10179C004D4B1A6A42F004021A621A6A42F00102B4
:1017AC001A62D6E7FEF7CCFD0646474B1B6A13F0D0
:1017BC00020F08D0FEF7C4FD801B41F2883398421B
:1017CC00F3D9032077E0E5B9E369002B72D03E4AE8
:1017DC00526802F00C02082A56D0022B17D03B4B51
:1017EC0000221A66FEF7ACFD0446374B1B6813F05B
:1017FC00007F47D0FEF7A4FD001B0228F5D903207B
:10180C0059E0314AD36923F08053D361DCE72F4B85
:10181C0000221A66FEF794FD05462B4B1B6813F04D
:10182C00007F06D0FEF78CFD401B0228F5D9032063
:10183C0041E0236AB3F5803F1AD023494B6823F467
:10184C007413226A606A024313434B601F4B0122DC
:10185C001A66FEF775FD04461B4B1B6813F0007FE0
:10186C000ED1FEF76DFD001B0228F5D9032022E0F6
:10187C00154A536823F40033A1680B435360DCE72B
:10188C00002018E0002016E0012B16D00E4B5B68F0
:10189C0003F48031226A914211D103F47013626A0D
:1018AC0093420ED1002006E001207047012002E097
:1018BC00012000E0002002B070BD0120FBE70120F8
:1018CC00F9E70120F7E700BF001002400000424298
:1018DC000F4B5B6803F00C02082A01D00D487047CF
:1018EC00C3F383420C49885C13F4803F0BD0084B44
:1018FC005B68C3F34043094AD35C064A02FB00F021
:10190C00B0FBF3F07047064B03FB00F0704700BFD1
:10191C000010024000127A00403C00083C3C0008D9
:10192C0000093D00002800F0A08070B50D4604466B
:10193C00524B1B6803F007038B420BD24F4A1368C0
:10194C0023F007030B431360136803F007038B4268
:10195C0040F08D80236813F0020F17D013F0040FA2
:10196C0004D0474A536843F4E0635360236813F090
:10197C00080F04D0424A536843F460535360404A02
:10198C00536823F0F003A1680B435360236813F0F2
:10199C00010F31D06368012B20D0022B25D0384A9F
:1019AC00126812F0020F64D035494A6822F0030223
:1019BC0013434B60FEF7C4FC0646314B5B6803F0E7
:1019CC000C036268B3EB820F16D0FEF7B9FC801BD8
:1019DC0041F288339842F0D9032045E0284A126836
:1019EC0012F4003FE0D101203EE0254A126812F0CB
:1019FC00007FD9D1012037E0204B1B6803F007038F
:101A0C00AB420AD91D4A136823F007032B4313601A
:101A1C00136803F00703AB422DD1236813F0040FB6
:101A2C0006D0174A536823F4E063E1680B43536014
:101A3C00236813F0080F07D0114A536823F460533E
:101A4C00216943EAC1035360FFF742FF0C4B5B680B
:101A5C00C3F303130B4AD35CD8400B4B18600B4BEE
:101A6C001868FEF729FC002070BD0120704701208A
:101A7C00FAE70120F8E70120F6E700BF002002405A
:101A8C00001002402C3C0008000000200800002040
:101A9C0070B582B00446036813F0010F36D03F4B8B
:101AAC00DB6913F0805F4AD13C4BDA6942F080521B
:101ABC00DA61DB6903F080530193019B0125384BFC
:101ACC001B6813F4807F3CD0344B1B6A13F44073B7
:101ADC0013D0626802F440729A420ED02F4A136AF5
:101AEC0023F440702F490126C1F840640026C1F848
:101AFC004064106213F0010F37D1284A136A23F4A3
:101B0C00407361680B431362002D3FD1236813F0BF
:101B1C00020F06D0214A536823F44043A1680B43BB
:101B2C005360236813F0100F35D01C4A536823F40C
:101B3C008003E1680B435360002002B070BD0025A8
:101B4C00BDE7174A136843F480731360FEF7F8FB84
:101B5C000646134B1B6813F4807FB5D1FEF7F0FBE0
:101B6C00801B6428F5D90320E7E7FEF7E9FB06465E
:101B7C000A4B1B6A13F0020FBFD1FEF7E1FB801B6F
:101B8C0041F288339842F3D90320D6E7D36923F086
:101B9C008053D361BAE70020CFE700BF00100240AA
:101BAC00007000400000424284B004A800E90E001E
:101BBC00002004B0704703460020A3F844004FF403
:101BCC003F42A3F840207047B0F8403023F47C53D8
:101BDC005B045B0CA0F8403000207047002070477D
:101BEC0084B0844604A800E90E000123ACF8403010
:101BFC000020ACF84000ACF84400ACF8500004B045
:101C0C007047000010B5034691F800C030F82C2046
:101C1C0092B222F4EC4222F0700292B2C8780328FD
:101C2C006AD80FF2080E5EF820F000BFEF1C000817
:101C3C00FD1C0008491C0008F51C0008002048F297
:101C4C00800E42EA0E0223F82C2091F800C033F8E3
:101C5C002C2092B222F4E04222F0700242EA0C02F2
:101C6C0042EA0E0223F82C200A7B002A40F0DC808A
:101C7C004A78002A51D0B3F8502092B21A440C780A
:101C8C0002EB0412B1F806C04FEA5C0C4FEA4C0CA4
:101C9C00A2F800C40C7833F8242012F0400F0CD0BA
:101CAC0033F8242092B222F4E04222F0700242F483
:101CBC00004242F0C00223F82420CA78012A1DD029
:101CCC00097833F8212092B222F4E04222F040024B
:101CDC0082F0200242F4004242F0800223F82120DC
:101CEC0017E142F40072AAE742F4C0620020A6E7B2
:101CFC0042F480620020A2E70120A0E7097833F8C3
:101D0C00212092B222F4E04222F0400242F400423E
:101D1C0042F0800223F82120FBE0B3F8502092B26D
:101D2C001A440C7802EB0412B1F806C04FEA5C0CB2
:101D3C004FEA4C0CA2F808C4B3F8502092B21A44E3
:101D4C000C7802EB0412B2F80CC4CCF3090CA2F818
:101D5C000CC40C693E2C39D94FEA541E14F01F0FD9
:101D6C0001D10EF1FF3EB2F80CC41FFA8CFC4FEA05
:101D7C008E2E1FFA8EFE4CEA0E0C4CF4004CA2F880
:101D8C000CC40C7833F8242012F4804F0CD033F8A8
:101D9C00242092B222F4E04222F0700242F440423B
:101DAC0042F0800223F82420097869BB33F8212003
:101DBC0092B222F4804222F0700282F4405242F439
:101DCC00004242F0800223F82120A2E04CB9B2F884
:101DDC000C446FEA44446FEA5444A4B2A2F80C4495
:101DEC00CFE74FEA540C14F0010F01D00CF1010CA9
:101DFC00B2F80C44A4B24FEA8C2C1FFA8CFC44EAC7
:101E0C000C04A2F80C44BCE733F8212092B222F463
:101E1C00804222F0700282F4005242F4004242F0FE
:101E2C00800223F8212074E0CA78022A72D00C7840
:101E3C0033F8242092B222F4E24222F0700242F4EF
:101E4C00004242F0800223F82420B3F8502092B2D2
:101E5C001A4491F800C002EB0C12B1F808C04FEA1A
:101E6C005C0C4FEA4C0CA2F800C4B3F8502092B2B0
:101E7C001A4491F800C002EB0C12B1F80AC04FEAF8
:101E8C005C0C4FEA4C0CA2F808C44A78002A50D1DA
:101E9C000C7833F8242012F4804F0CD033F8242023
:101EAC0092B222F4E04222F0700242F4404242F03C
:101EBC00800223F824200C7833F8242012F0400FF1
:101ECC000CD033F8242092B222F4E04222F07002BB
:101EDC0042F4004242F0C00223F8242091F800C0E2
:101EEC0033F82C2092B222F4804222F0700282F459
:101EFC00405248F28004224323F82C20097833F80E
:101F0C00212092B222F4E04222F04002224323F834
:101F1C00212010BD0C7833F8242092B222F4E04238
:101F2C0022F0700242F4014242F0800223F8242095
:101F3C008BE70C7833F8242012F4804F0CD033F854
:101F4C00242092B222F4E04222F0700242F4404289
:101F5C0042F0800223F824200C7833F8242012F06D
:101F6C00400F0CD033F8242092B222F4E04222F03D
:101F7C00700242F4004242F0C00223F82420CA78D6
:101F8C00012A1ED00C7833F8242092B222F4E042BD
:101F9C0022F0400282F0200242F4004242F0800221
:101FAC0023F82420097833F8212092B222F48042BD
:101FBC0022F0700242F4004242F0800223F8212009
:101FCC00A7E70C7833F8242092B222F4E04222F0F6
:101FDC00400242F4004242F0800223F82420E1E760
:101FEC000B7B002B46D14B7813B30A7830F8223098
:101FFC0013F0400F0CD030F822309BB223F4E043A6
:10200C0023F0700343F4004343F0C00320F8223064
:10201C000A7830F822309BB223F4E04323F04003DB
:10202C0043F4004343F0800320F822300020704733
:10203C000A7830F8223013F4804F0CD030F822306C
:10204C009BB223F4E04323F0700343F4404343F08A
:10205C00800320F822300A7830F822309BB223F427
:10206C00804323F0700343F4004343F0800320F8D3
:10207C002230DBE74B78002B4ED10A7830F8223037
:10208C0013F4804F0CD030F822309BB223F4E04391
:10209C0023F0700343F4404343F0800320F82230D4
:1020AC000A7830F8223013F0400F0CD030F8223080
:1020BC009BB223F4E04323F0700343F4004343F05A
:1020CC00C00320F822300A7830F822309BB223F477
:1020DC00E04323F0700343F4004343F0C00320F8C3
:1020EC0022300A7830F822309BB223F4804323F05C
:1020FC00700348F2800C43EA0C0320F822300A7873
:10210C0030F822309BB223F4E04323F0400343EA3F
:10211C000C0320F8223089E70A7830F8223013F4C7
:10212C00804F0CD030F822309BB223F4E04323F0E4
:10213C00700343F4404343F0800320F822300A78C4
:10214C0030F8223013F0400F0CD030F822309BB214
:10215C0023F4E04323F0700343F4004343F0C00343
:10216C0020F822300A7830F822309BB223F4E04376
:10217C0023F0700343F4404343F0800320F82230F3
:10218C000A7830F822309BB223F4E04323F040036A
:10219C0048F2800C43EA0C0320F822300A7830F81D
:1021AC0022309BB223F4804323F0700343EA0C03E8
:1021BC0020F822303AE74B788BB10A7830F822308D
:1021CC009BB223F4E04323F0400383F0100343F469
:1021DC00004343F0800320F82230002070470A7837
:1021EC0030F822309BB223F4804323F0700383F445
:1021FC00805343F4004343F0800320F82230ECE793
:10220C000B7B002B4BD14B7833B30A7830F8223050
:10221C0013F0400F0CD030F822309BB223F4E04383
:10222C0023F0700343F4004343F0C00320F8223042
:10223C00CB78012B33D00A7830F822309BB223F4C0
:10224C00E04323F0400383F0200343F4004343F0C6
:10225C00800320F8223022E00A7830F8223013F480
:10226C00804F0CD030F822309BB223F4E04323F0A3
:10227C00700343F4404343F0800320F822300A7883
:10228C0030F822309BB223F4804323F0700383F4A4
:10229C00405343F4004343F0800320F822300020E5
:1022AC00704711B98023A0F84C30002070470020F3
:1022BC00704700207047B0F8440080B2704700208F
:1022CC00704701335B0800EB420000F5806008E0CA
:1022DC000A7891F801C042EA0C2220F8042B023152
:1022EC00013B002BF4D1704770B505460C464A787B
:1022FC00012A3BD00B7B002B40F0A6828B690A692C
:10230C00934240F284829B1A8B61B5F850309BB299
:10231C002B44217803EB0113B3F80C14C1F309011E
:10232C00A3F80C143E2A40F27682510912F01F0FCA
:10233C0000D10139B3F80C2492B2890289B20A4354
:10234C0042F40042A3F80C24227835F822309BB2D8
:10235C0023F4804323F0700383F4405343F400438D
:10236C0043F0800325F82230002070BD8E69096986
:10237C008E4200D90E46237B73B3E378022B4DD0EB
:10238C00236A9B1B2362217835F8213013F0400F10
:10239C0000F0F581002A40F0E281B5F850309BB294
:1023AC002B4403EB0113B3F80C24C2F30902A3F87A
:1023BC000C243E2E40F2BA81710916F01F0F00D189
:1023CC000139B3F80C2492B2890289B20A4342F45F
:1023DC000042A3F80C24CBE1B6B23346E288616923
:1023EC002846FFF76EFFB5F850309BB22B4422788D
:1023FC0003EB0213A3F80464227835F822309BB265
:10240C0023F4E04323F0400383F0300343F4004310
:10241C0043F0800325F822300020A6E7236A994276
:10242C0080F06681227835F822309BB223F4E043A9
:10243C0023F0700343F4014343F0800325F822306A
:10244C00236A9B1B2362227835F8223013F0400F4D
:10245C0000F0A7806378B3BBB5F850309BB22B4427
:10246C0003EB0213B3F80C24C2F30902A3F80C24F7
:10247C003E2E0FD9710916F01F0F00D10139B3F898
:10248C000C2492B2890289B20A4342F40042A3F8A6
:10249C000C241AE04EB9B3F80C246FEA42426FEAEE
:1024AC00524292B2A3F80C240FE0720816F0010FFE
:1024BC0000D00132B3F80C1489B2920292B20A43E2
:1024CC00A3F80C2401E0012B30D0B3B2628961690E
:1024DC002846FFF7F6FE636933446361236A226979
:1024EC0093422DD99B1B23626378002B45D1B5F801
:1024FC0050309BB22B44227803EB0213B3F8042424
:10250C00C2F30902A3F804243E2E1DD9710916F05A
:10251C001F0F00D10139B3F8042492B2890289B299
:10252C000A4342F40042A3F8042428E0B5F85030E2
:10253C009BB22B4403EB0213B2B2A3F80C24C4E7F6
:10254C00002222621E46CFE74EB9B3F804246FEA8C
:10255C0042426FEA524292B2A3F804240FE072088E
:10256C0016F0010F00D00132B3F8041489B29202B4
:10257C0092B20A43A3F8042401E0012B06D0B3B2B3
:10258C00228961692846FFF79CFE35E7B5F8503083
:10259C009BB22B44227803EB0213B2B2A3F80424AF
:1025AC00EDE76378B3BBB5F850309BB22B4403EB2B
:1025BC000213B3F80424C2F30902A3F804243E2E38
:1025CC000FD9710916F01F0F00D10139B3F804248B
:1025DC0092B2890289B20A4342F40042A3F804245D
:1025EC001AE04EB9B3F804246FEA42426FEA524241
:1025FC0092B2A3F804240FE0720816F0010F00D079
:10260C000132B3F8041489B2920292B20A43A3F8CD
:10261C00042401E0012B30D0B3B222896169284631
:10262C00FFF74FFE636933446361236A2269934267
:10263C002DD99B1B23626378002B45D1B5F8503004
:10264C009BB22B44227803EB0213B3F80C24C2F395
:10265C000902A3F80C243E2E1DD9710916F01F0F88
:10266C0000D10139B3F80C2492B2890289B20A4321
:10267C0042F40042A3F80C2428E0B5F850309BB289
:10268C002B4403EB0213B2B2A3F80424C4E70022D8
:10269C0022621E46CFE74EB9B3F80C246FEA4242D1
:1026AC006FEA524292B2A3F80C240FE0720816F0B3
:1026BC00010F00D00132B3F80C1489B2920292B21D
:1026CC000A43A3F80C2401E0012B06D0B3B26289B3
:1026DC0061692846FFF7F5FD8EE6B5F850309BB2E0
:1026EC002B44227803EB0213B2B2A3F80C24EDE7CF
:1026FC00217835F8212092B222F4E24222F07002C5
:10270C0042F4004242F0800225F82120B5F8502016
:10271C0092B22A44217802EB01129BB2A2F8043443
:10272C00228961692846FFF7CCFD65E64EB9B3F8FE
:10273C000C246FEA42426FEA524292B2A3F80C2484
:10274C0016E0720816F0010F00D00132B3F80C1429
:10275C0089B2920292B20A43A3F80C2408E0B5F8AD
:10276C0050309BB22B4403EB0113B2B2A3F80C24F0
:10277C00B3B2628961692846FFF7A3FD3CE6B2BBA0
:10278C00B5F850309BB22B4403EB0113B3F804247F
:10279C00C2F30902A3F804243E2E0FD9710916F0D6
:1027AC001F0F00D10139B3F8042492B2890289B207
:1027BC000A4342F40042A3F8042421E04EB9B3F8D2
:1027CC0004246FEA42426FEA524292B2A3F8042404
:1027DC0016E0720816F0010F00D00132B3F80414A1
:1027EC0089B2920292B20A43A3F8042408E0B5F825
:1027FC0050309BB22B4403EB0113B2B2A3F8042468
:10280C00B3B2228961692846FFF75BFDF4E500222B
:10281C008A611A4679E54AB9B3F80C246FEA424248
:10282C006FEA524292B2A3F80C248DE5510812F0D3
:10283C00010F00D00131B3F80C2492B2890289B295
:10284C000A43A3F80C247FE5CB78022B4DD0012B47
:10285C0040F02F8189692369994240F2E680C91AB8
:10286C00A161F2B9B5F8502092B22A44217802EB5A
:10287C000112B2F80414C1F30901A2F804143E2B9E
:10288C0040F2D780580913F01F0F00D10138B2F86D
:10289C00041489B2800280B2014341F40041A2F8D1
:1028AC0004146278002A40F0F680B5F8502092B2F9
:1028BC002A44217802EB0112B2F80C14C1F309017D
:1028CC00A2F80C143E2B40F2CD80590913F01F0FC7
:1028DC0000D10139B2F80C349BB2890289B20B4396
:1028EC0043F40043A2F80C342EE5F2B9B0F85030A2
:1028FC009BB203440A7803EB0213B3F80424C2F32B
:10290C000902A3F804240A693E2A31D9510912F0AC
:10291C001F0F00D10139B3F8042492B2890289B295
:10292C000A4342F40042A3F804246378002B51D1EB
:10293C00B5F850309BB22B44227803EB0213B3F85A
:10294C000C24C2F30902A3F80C2422693E2A28D9CC
:10295C00510912F01F0F00D10139B3F80C2492B2B7
:10296C00890289B20A4342F40042A3F80C2433E0F2
:10297C004AB9B3F804246FEA42426FEA524292B267
:10298C00A3F80424D1E7510812F0010F00D0013153
:10299C00B3F8042490B28A0292B20243A3F804243E
:1029AC00C3E74AB9B3F80C246FEA42426FEA5242C9
:1029BC0092B2A3F80C240FE0510812F0010F00D0D2
:1029CC000131B3F80C2490B28A0292B20243A3F8FC
:1029DC000C2401E0012B1DD0E369002B3FF4B4ACB7
:1029EC00227835F8221044F2400303EA01008B43AD
:1029FC0002D000287FF4A8AC35F822309BB223F427
:102A0C00E04323F0700343F4004343F0C00325F884
:102A1C00223099E4B5F850309BB22B44227803EB6A
:102A2C000213228AA3F80C24D6E70023A3610B46D9
:102A3C0017E74BB9B2F804146FEA41416FEA514100
:102A4C0089B2A2F804142CE7590813F0010F00D036
:102A5C000131B2F8040480B2890289B20143A2F8B0
:102A6C0004141EE74BB9B2F80C346FEA43436FEA17
:102A7C0053439BB2A2F80C3466E4590813F0010FCF
:102A8C0000D00131B2F80C3498B28B029BB20343E4
:102A9C00A2F80C3458E4012A7FF456ACB5F8502057
:102AAC0092B22A44217802EB01129BB2A2F80C34A8
:102ABC004AE4012059E410B45C0800EB420000F534
:102ACC00806007E030F8042B0A70C2F307224A70CA
:102ADC000231013C002CF5D113F0010F01D0038819
:102AEC000B7010BC7047000029230380004870470E
:102AFC007C000020292303800048704750000020F0
:102B0C00292303800048704724000020D0F8B832F5
:102B1C00002083F85000704710B5D0F8B842E36C31
:102B2C00012B01D0002010BDD0F8BC32DB68204650
:102B3C0098470023E364F5E70A23038000487047B5
:102B4C000C00002038B50446D0F8B852D0F8BC328E
:102B5C00DB682846984740232A460121204600F08E
:102B6C00F2FF002038BD000070B582B0D0F8B8522A
:102B7C000023ADF806300C7814F0600441D0202C02
:102B8C0040F0A3804B78023B092B36D801A252F8B7
:102B9C0023F000BFE92B0008D12B0008072C0008FC
:102BAC00072C0008072C0008072C0008072C00082D
:102BBC00F72B0008DF2B0008C92B00088B782B643F
:102BCC00002485E0012205F1400100F0A3FD002462
:102BDC007EE04B881B0A6B64002479E0012205F12E
:102BEC00440100F097FD002472E00123EB64CA88D5
:102BFC00294600F0A4FD00246AE000F059FA0224F2
:102C0C0066E04E780B2E5CD801A353F826F000BF7B
:102C1C004D2C0008CF2C0008CF2C0008CF2C00081E
:102C2C00CF2C0008CF2C00086B2C0008CF2C0008F0
:102C3C00CF2C0008CF2C00089D2C0008B92C0008C4
:102C4C0090F89C32032B03D000F032FA02243FE0C0
:102C5C0002220DF1060100F05DFD344638E04B8890
:102C6C001B0A222B06D0212B0CD000210A4600F087
:102C7C0051FD2DE0CA88182A28BF1822D0F8BC3282
:102C8C001968F4E7CA88092A28BF09221249EEE715
:102C9C0090F89C32032B03D000F00AFA022417E0C0
:102CAC00012205F1480100F035FD11E090F89C324D
:102CBC00032B02D18B78AB640AE000F0F9F9022403
:102CCC0006E000F0F5F9022402E000F0F1F902242C
:102CDC00204602B070BD00BF1800002038B5044675
:102CEC00812100F0F2FE0025E5620121204600F072
:102CFC00ECFEC4F86C51D4F8B8324BB1D4F8BC32F9
:102D0C009B689847D4F8B80200F02AFFC4F8B85270
:102D1C00002038BD70B5044640230322812100F009
:102D2C00C9FE0125E562402303222946204600F016
:102D3C00C1FEC4F86C51542000F00EFFC4F8B80268
:102D4C0078B10546002680F85060D4F8BC325B6838
:102D5C00984740232A460121204600F0F4FE3046D5
:102D6C0070BD0120FCE738B5D0F8B85290F89C3211
:102D7C00032B02D00024204638BD95F850400CB1EE
:102D8C000124F8E7012385F8503013460A468121C7
:102D9C0000F0D1FEEFE719B1C0F8BC12002070476B
:102DAC000220704798B108B50346D0F8B40210B1B0
:102DBC000020C3F8B40209B1C3F8B012012183F8A2
:102DCC009C121A70184600F033FE002008BD022039
:102DDC00704719B1C0F8B412002070470220704738
:102DEC0008B500F05FFE002008BD08B5D0F8B4327D
:102DFC002BB11B68984700B908BD0220FCE70220E4
:102E0C00FAE708B5D0F8B4325B689847002008BDE3
:102E1C0038B5044600F52A75284600F035F901232B
:102E2C00C4F89432B4F8AE32C4F8983294F8A812BC
:102E3C0001F01F03012B08D0022B0BD07BB92946C4
:102E4C00204600F0E5FA002038BD2946204600F067
:102E5C0023FBF8E72946204600F04EFBF3E701F090
:102E6C008001204600F039FEEDE738B504460D46EA
:102E7C0091BB1346D0F89422032A03D0052A24D000
:102E8C00084633E0D0F86011D0F8642191420DD996
:102E9C00891AC0F860118A4206D98AB219462046AE
:102EAC0000F05CFC284621E092B2F7E7D0F8B4328F
:102EBC001B691BB190F89C22032A04D0204600F019
:102ECC0055FC284612E09847F8E70021C0F8941208
:102EDC0000F003FE284609E0D0F8B4329B6933B108
:102EEC0090F89C22032A04D19847002038BD022078
:102EFC00FCE70220FAE738B504460D46002953D109
:102F0C001346D0F89422022A0CD0042A00D01AB905
:102F1C008021204600F0E1FD94F8A032012B3ED038
:102F2C00284638BD026A416A8A421BD8C269B2FB84
:102F3C00F1F301FB13232BB9914203D8D0F898324B
:102F4C009A421CD3D4F8B432DB681BB194F89C229F
:102F5C00032A21D08021204600F0BFFD204600F03E
:102F6C0010FCD9E7521A026292B2194600F0DFFB4C
:102F7C0000231A461946204600F0E5FDCCE7002256
:102F8C00114600F0D4FB0021C4F898120B460A46F7
:102F9C00204600F0D8FDBFE720469847DAE700232B
:102FAC0084F8A0322846BCE7D0F8B4325B6933B160
:102FBC0090F89C22032A04D198470020B1E7022004
:102FCC00AFE70220ADE770B504464023002211465E
:102FDC0000F070FD0125C4F858514026C4F8646116
:102FEC00334600228021204600F064FDA561666214
:102FFC0084F89C520023C4F894326360C4F8A43261
:10300C00D4F8B8322BB1D4F8B4325B680021204626
:10301C009847002070BD01740020704790F89C32D6
:10302C0080F89D32042380F89C320020704790F881
:10303C009C32042B01D00020704790F89D3280F810
:10304C009C32F8E708B590F89C32032B01D0002095
:10305C0008BDD0F8B432DB69002BF8D09847F6E7FE
:10306C000346002002E00130C0B201331A78002A76
:10307C00F9D1704708B54B88012B00D008BDC0F8BA
:10308C00A43200F073FBF9E70B7803704B784370B4
:10309C008B78CA7803EB022343800B794A7903EBD4
:1030AC00022383808B79CA7903EB0223C380704798
:1030BC0010B50446802100F010FD0021204600F0E0
:1030CC000CFD10BD30B583B005460C460023ADF8A1
:1030DC0006304A88130A013B062B00F2B98001A185
:1030EC0051F823F00D310008353100085D3100082E
:1030FC005D3200085D320008253200083F320008BE
:10310C00D0F8B0321B680DF10601007C9847BDF871
:10311C0006201AB1E388002B40F09E80E388002B38
:10312C0000F0A48003B030BD037C43B9D0F8B432B6
:10313C009B6A0DF10600984702234370E7E7D0F82D
:10314C00B432DB6A0DF10600984702234370DEE7C8
:10315C00D2B2052A5CD801A353F822F081310008C1
:10316C009B310008B5310008CF310008E931000867
:10317C0003320008D0F8B0325B6823B10DF10601C0
:10318C00007C9847C3E72146FFF792FFCAE7D0F8C7
:10319C00B0329B6823B10DF10601007C9847B6E76D
:1031AC002146FFF785FFBDE7D0F8B032DB6823B1CD
:1031BC000DF10601007C9847A9E72146FFF778FF3F
:1031CC00B0E7D0F8B0321B6923B10DF10601007CD9
:1031DC0098479CE72146FFF76BFFA3E7D0F8B03286
:1031EC005B6923B10DF10601007C98478FE72146FE
:1031FC00FFF75EFF96E7D0F8B0329B6923B10DF173
:10320C000601007C984782E72146FFF751FF89E7CA
:10321C002146FFF74DFF85E7037C33B9D0F8B43274
:10322C005B6B0DF10600984771E72146FFF740FFF5
:10323C0078E7037C43B9D0F8B4321B6B0DF1060070
:10324C0098470723437062E72146FFF731FF69E790
:10325C002146FFF72DFF65E79A4228BF1A46ADF8C5
:10326C0006200146284600F055FA57E7284600F09C
:10327C007DFA57E738B504468B88F3B9CB88E3B9A8
:10328C004B887F2B19D803F07F0590F89C32032BC9
:10329C000CD080F89E52294600F045FC204600F0E8
:1032AC0065FA35B1022384F89C3209E0FFF700FF80
:1032BC0006E0012384F89C3202E02046FFF7F8FE7A
:1032CC0038BD000038B504460D468978284B197076
:1032DC0001290ED890F89C32022B0ED0032B21D052
:1032EC002946FFF7E5FE224B19782046FFF789FDAA
:1032FC0002E02946FFF7DCFE38BD81B141600323B3
:10330C0080F89C32FFF771FD022803D0204600F0B4
:10331C002DFAF1E729462046FFF7CAFEECE700F04C
:10332C0025FAE9E789B1436899421DD0D9B2FFF774
:10333C0068FD0F4B197861602046FFF756FD022897
:10334C000DD0204600F012FAD6E7022380F89C320A
:10335C004160FFF756FD204600F008FACCE72946FD
:10336C002046FFF7A5FEC7E700F000FAC4E700BF50
:10337C00B801002008B5CB88012B0AD190F89C32FB
:10338C00022B09D9032B11D10122011D00F0C2F926
:10339C0001E0FFF78DFE08BD5BB23BB10146002397
:1033AC0041F8083F012200F0B5F9F4E7FFF780FE81
:1033BC00F1E708B590F89C32013B022B12D8CB8870
:1033CC00022B0CD10123C360D0F8A4320BB1032320
:1033DC00C360022200F10C0100F09CF908BDFFF75C
:1033EC0067FEFBE7FFF764FEF8E708B590F89C3240
:1033FC00013B022B09D84B88012B00D008BD0023C0
:10340C00C0F8A43200F0B2F9F8E7FFF751FEF5E787
:10341C0008B50B7803F06003202B05D0402B03D0AC
:10342C0043B1FFF745FE03E0D0F8B4329B689847F0
:10343C00002008BD4B78092B2BD801A252F823F0A1
:10344C008D340008993400089F3400089334000828
:10345C009F3400087B340008753400089F34000842
:10346C008734000881340008FFF72CFEE0E7FFF7F3
:10347C0001FFDDE7FFF726FFDAE7FFF77BFFD7E772
:10348C00FFF797FFD4E7FFF7F5FDD1E7FFF7ADFFA7
:10349C00CEE7FFF70DFECBE738B505460C460B78AB
:1034AC0003F06003202B06D0402B04D01BB1FFF798
:1034BC00FFFD002038BD95F89C32013B022B16D83D
:1034CC002379012B0ED8D5F8B4329B6821462846B7
:1034DC009847E388002BECD10028EAD1284600F06D
:1034EC0045F9E6E721462846FFF7E2FDE1E72146EC
:1034FC002846FFF7DDFDDCE770B505468B880C78B8
:10350C0004F06004202C07D0DAB2402C04D05CB15B
:10351C00FFF7CEFD002405E0D5F8B4329B682846B1
:10352C0098470024204670BD202C09D04E78012EDF
:10353C0033D0032E0AD0002E55D0FFF7B9FDF1E79A
:10354C00D0F8B4329B6898470446EBE790F89C326D
:10355C00022B04D0032B11D0FFF7AAFDE2E70AB12E
:10356C00802A03D12846FFF7A3FDDBE7114600F0C4
:10357C00B4FA8021284600F0B0FAD3E74B8823B97F
:10358C001AB1802A01D0CB881BB1284600F0EEF886
:10359C00C8E7114600F0A1FAF7E790F89C32022B2D
:1035AC0004D0032B11D0FFF783FDBBE70AB1802AAF
:1035BC0003D12846FFF77CFDB4E7114600F08DFAE5
:1035CC008021284600F089FAACE74B88002BA9D162
:1035DC0012F07F0F03D1284600F0C8F8A2E711467D
:1035EC0000F083FAF7E790F89C02022806D0032833
:1035FC0029D02846FFF75CFD344693E70AB1802AB0
:10360C0013D113F0800F15D102F07F0202EB82026E
:10361C00910001F5A8712944043100230B600222AA
:10362C00284600F077F834467CE72846FFF740FD43
:10363C00344677E702F07F0202EB820291001031F0
:10364C0029440431E9E75BB2002B1FDB02F00F00C9
:10365C0000EB800005EB8000D0F8580120B3002B64
:10366C0027DB02F07F0303EB83039C0004F5A874B3
:10367C002C4404340AB1802A24D100232360022272
:10368C002146284600F046F834464BE702F00F007E
:10369C0000EB800005EB800080690028DFD1284614
:1036AC00FFF706FD34463DE72846FFF701FD34469B
:1036BC0038E702F07F0303EB83039C0010342C44A7
:1036CC000434D7E71146284600F017FA10B101234D
:1036DC002360D4E700232360D1E7D0B170B50D4649
:1036EC0016460446FFF7BCFC431C5B009BB23380C0
:1036FC002B7003236B70022307E001345A1CD2B2E7
:10370C00E8540233DBB20021A95420780028F4D10C
:10371C0070BD704708B513460222C0F89422C361ED
:10372C0003620A46002100F006FA002008BD08B525
:10373C0013460A46002100F0FEF9002008BD08B52A
:10374C0013460322C0F89422C0F85C31C0F86031F3
:10375C000A46002100F0F7F9002008BD08B5134611
:10376C000A46002100F0EFF9002008BD08B504233B
:10377C00C0F8943200231A46194600F0DCF90020F8
:10378C0008BD08B50523C0F8943200231A46194623
:10379C0000F0D9F9002008BD08B500220F491048E7
:1037AC00FFF700FB70B90F490D48FFF712FB60B92A
:1037BC000D490B48FFF7EFFA50B90948FFF710FB1A
:1037CC0048B908BDFCF7DFFCEDE7FCF7DCFCEFE7E4
:1037DC00FCF7D9FCF1E7FCF7D6FCF2E73C01002042
:1037EC00BC010020A8000020E00000200020704751
:1037FC000020704708B5FCF7C5FC002008BD000090
:10380C0012230B80004870472801002004230B80F2
:10381C000048704724010020002393421ED200B5BB
:10382C0010E00CF1370C01F813C000014FEA430C07
:10383C000CF1010C4FF0000E01F80CE00133DBB27F
:10384C00934209D24FEA107CB0F1204FE9D20CF12F
:10385C00300C01F813C0E8E75DF804FB704700007A
:10386C0038B50B4BD3F8E807D3F8EC47D3F8F0375F
:10387C00C01800D138BD074D08222946FFF7CCFFF0
:10388C00042205F110012046FFF7C6FFF2E700BF46
:10389C0000F0FF1F0A01002008B51A230B80FFF768
:1038AC00DFFF014808BD00BF0801002008B50A462B
:1038BC0028B905490548FFF710FF034808BD024920
:1038CC000248FFF70AFFF8E780040020503C00088C
:1038DC0010B50A46034C21460348FFF7FEFE20466E
:1038EC0010BD00BF80040020583C000808B50A46F3
:1038FC0028B905490548FFF7F0FE034808BD024901
:10390C000248FFF7EAFEF8E7800400206C3C000850
:10391C0008B50A4628B905490548FFF7DEFE0348F5
:10392C0008BD02490248FFF7D8FEF8E780040020E2
:10393C00803C000802280BD801A353F820F000BFEC
:10394C005F3900085D3900085939000801207047BB
:10395C000220704702680E4B9A4200D0704700B5A7
:10396C0083B003F5DA33DA6942F40002DA61DB6919
:10397C0003F400030193019B002211461420FCF771
:10398C003FFD1420FCF74CFD03B05DF804FB00BFB9
:10399C00005C004008B500F52671D0F8D402FFF7A2
:1039AC0037FA08BD08B501EB810300EBC303D3F86C
:1039BC006421D0F8D402FFF758FA08BD08B501EB22
:1039CC00810300EBC3035A6AD0F8D402FFF793FAD1
:1039DC0008BD08B5D0F8D402FFF734FB08BD10B50C
:1039EC0004468379022B09D10121D4F8D402FFF7C4
:1039FC0012FBD4F8D402FFF7E6FA10BDFCF7C3FBB8
:103A0C00F2E7000010B50446D0F8D402FFF706FB2D
:103A1C00A37A23B1024A136943F00603136110BD64
:103A2C0000ED00E008B5D0F8D402FFF700FB08BDAC
:103A3C0010B504461948C0F8D442C4F8C002184B5B
:103A4C000360082303710223837100238372C37202
:103A5C000373FCF795FDE8B9182300221146D4F83E
:103A6C00C002FDF7FBFC582300228021D4F8C002D1
:103A7C00FDF7F4FC982300228121D4F8C002FDF755
:103A8C00EDFCD82300220121D4F8C002FDF7E6FC9E
:103A9C00002010BDFCF777FBDEE700BFD806002046
:103AAC00005C004008B5D0F8C002FCF7DDFDFFF764
:103ABC0041FF08BD08B594461A466346D0F8C002CB
:103ACC00FDF792FBFFF736FF08BD08B5D0F8C00232
:103ADC00FDF7CCFBFFF72EFF08BD08B5D0F8C002F0
:103AEC00FDF73DFCFFF726FF08BD08B5D0F8C00276
:103AFC00FDF775FCFFF71EFF08BDD0F8C03211F0C2
:103B0C00800F08D101F07F0101EB810103EBC103B0
:103B1C0093F85201704701F07F0101EB810103EB37
:103B2C00C103987C704708B5D0F8C002FDF771FA54
:103B3C00FFF700FF08BD08B5D0F8C002FDF7E9FBA0
:103B4C00FFF7F8FE08BD08B5D0F8C002FDF7C4FBBE
:103B5C00FFF7F0FE08BD000000487047800600200B
:103B6C0070477047FCF7A6FB0B480C490C4A002326
:103B7C0002E0D458C4500433C4188C42F9D3094A17
:103B8C00094C002301E013600432A242FBD300F085
:103B9C0017F8FCF73BFB7047000000205801002091
:103BAC00A03C000858010020B0090020FEE70346A5
:103BBC000244934200D1704703F8011BF9E700005F
:103BCC0070B500260C4D0D4C641BA410A64209D1F7
:103BDC0000F01AF800260A4D0A4C641BA410A642E9
:103BEC0005D170BD55F8043B98470136EEE755F802
:103BFC00043B98470136F2E7983C0008983C0008D3
:103C0C00983C00089C3C0008F8B500BFF8BC08BC08
:103C1C009E467047F8B500BFF8BC08BC9E4670477E
:103C2C000000000000000000010203040607080960
:103C3C000102000002030405060708090A0B0C0D1B
:103C4C000E0F1010546573744849440053544D6959
:103C5C0063726F656C656374726F6E696373000079
:103C6C00437573746F6D2048494420436F6E6669C9
:103C7C0067000000437573746F6D204849442049F8
:0C3C8C006E7465726661636500000000E4
:043C980031010008EE
:043C9C000D0100080E
:103CA00000127A0001000000100000000A06000265
:103CB000000000400100000009211101000122184C
:103CC0000000000009022900010100C032090400BF
:103CD0000002030000000921110100012218000761
:103CE00005810340000507050103400005000000B1
:103CF00009022900010100C032090400000203008A
:103D0000000009211101000122180007058103406C
:103D10000005070501034000050000000902290015
:103D2000010100C032090400000203000000092163
:103D30001101000122180007058103400005070555
:103D40000103400005000000212D0008E92C0008B7
:103D5000752B000800000000252B0008192B000817
:103D6000512B0008000000000000000000000000CF
:103D7000012B0008F52A00080D2B0008452B000830
:103D8000F0000020F9370008FD370008013800086E
:103D90000600FF0901A10109027508954081020989
:103DA00002750895409102C01A030000000000004F
:103DB0000000000000000000000000000000000003
:103DC000000000000403090412010002000000408A
:103DD0008304505700020102030100000D3800085F
:103DE00019380008DD380008B9380008A53800087F
:083DF000F93800081D39000834
:0400000508003B7143
:00000001FF
